:100000000000002071150000010D00001D0D000012
:100010001D0D00001D0D00001D0D00001D0D000038
:100020001D0D00001D0D00001D0D00001D0D000028
:100030001D0D00001D0D00001D0D00001D0D000018
:100040001D0D00001D0D00001D0D00001D0D000008
:100050001D0D00001D0D00001D0D00001D0D0000F8
:100060001D0D00001D0D00001D0D00001D0D0000E8
:100070001D0D00001D0D00001D0D00001D0D0000D8
:100080001D0D00001D0D00001D0D00001D0D0000C8
:100090001D0D00001D0D00001D0D00001D0D0000B8
:1000A0001D0D00001D0D00001D0D00001D0D0000A8
:1000B0001D0D00001D0D00001D0D00001D0D000098
:1000C0001D0D00001D0D00001D0D00001D0D000088
:1000D0001D0D00001D0D00001D0D00001D0D000078
:1000E0001D0D00001D0D00001D0D00001D0D000068
:1000F0001D0D0000B91600001D0D00001D0D0000B3
:100100001D0D00001D0D00001D0D00001D0D000047
:100110001D0D00001D0D00001D0D00001D0D000037
:100120001D0D00001D0D00001D0D00001D0D000027
:100130001D0D00001D0D00001D0D00001D0D000017
:100140001D0D00001D0D00001D0D00001D0D000007
:100150008D1600001D0D00001D0D00001D0D00007E
:100160001D0D00001D0D00001D0D00001D0D0000E7
:100170001D0D00001D0D00001D0D00001D0D0000D7
:100180001D0D00001D0D00001D0D00001D0D0000C7
:100190001D0D00001D0D00001D0D00001D0D0000B7
:1001A0001D0D00004D1600001D0D00001D0D00006E
:0C01B0001D0D00001D0D00001D0D0000C5
:10040000FFFFFFFFFFFFFFFFFFFFFFFF7EFFFFFF7D
:1004100080F0004002E000BF81F0004142001FBFB9
:100420005FEA410392EA030F7FEA226C7FEA236CC2
:100430006AD04FEA1262D2EB1363C1BFD2184140B7
:1004400048404140B8BF5B42192B88BF704710F04D
:10045000004F40F4000020F07F4018BF404211F0F0
:10046000004F41F4000121F07F4118BF494292EA58
:10047000030F3FD0A2F1010241FA03FC10EB0C0084
:10048000C3F1200301FA03F100F0004302D5494211
:1004900060EB4000B0F5000F13D3B0F1807F06D3BE
:1004A00040084FEA310102F10102FE2A51D2B1F1B6
:1004B000004F40EBC25008BF20F0010040EA0300AB
:1004C0007047490040EB000010F4000FA2F1010258
:1004D000EDD1B0FA80FCACF1080CB2EB0C0200FAE2
:1004E0000CF0AABF00EBC25052421843BCBFD04030
:1004F0001843704792F0000F81F4000106BF80F4AA
:1005000000000132013BB5E74FEA41037FEA226C6C
:1005100018BF7FEA236C21D092EA030F04D092F037
:10052000000F08BF0846704790EA010F1CBF00206B
:10053000704712F07F4F04D1400028BF40F00040C8
:10054000704712F100723CBF00F50000704700F0E8
:10055000004343F0FE4040F4000070477FEA22620F
:1005600016BF08467FEA23630146420206BF5FEAE0
:10057000412390EA010F40F4800070474FF00003E0
:1005800004E000BF10F0004348BF40425FEA000CA7
:1005900008BF704743F0964301464FF000001CE04F
:1005A00050EA010208BF70474FF000030AE000BFA5
:1005B00050EA010208BF704711F0004302D54042E3
:1005C00061EB41015FEA010C02BF84460146002055
:1005D00043F0B64308BFA3F18053A3F50003BCFA70
:1005E0008CF2083AA3EBC25310DB01FA02FC63441D
:1005F00000FA02FCC2F12002BCF1004F20FA02F224
:1006000043EB020008BF20F00100704702F1200216
:1006100001FA02FCC2F1200250EA4C0021FA02F277
:1006200043EB020008BF20EADC7070474FF0FF0C7C
:100630001CEAD0521EBF1CEAD15392EA0C0F93EA77
:100640000C0F6FD01A4480EA010C400218BF5FEA19
:1006500041211ED04FF0006343EA501043EA51118C
:10066000A0FB01310CF00040B1F5000F3EBF490086
:1006700041EAD3715B0040EA010062F17F02FD2A8A
:100680001DD8B3F1004F40EBC25008BF20F001006D
:10069000704790F0000F0CF0004C08BF49024CEA84
:1006A000502040EA51207F3AC2BFD2F1FF0340EA16
:1006B000C250704740F400004FF00003013A5DDC87
:1006C00012F1190FDCBF00F000407047C2F10002C8
:1006D000410021FA02F1C2F1200200FA02FC5FEAB5
:1006E000310040F1000053EA4C0308BF20EADC70FF
:1006F000704792F0000F00F0004C02BF400010F471
:10070000000F013AF9D040EA0C0093F0000F01F01D
:10071000004C02BF490011F4000F013BF9D041EA3F
:100720000C018FE70CEAD15392EA0C0F18BF93EA41
:100730000C0F0AD030F0004C18BF31F0004CD8D16B
:1007400080EA010000F00040704790F0000F17BFF2
:1007500090F0004F084691F0000F91F0004F14D038
:1007600092EA0C0F01D142020FD193EA0C0F03D190
:100770004B0218BF084608D180EA010000F0004093
:1007800040F0FE4040F40000704740F0FE4040F46E
:10079000400070474FF0FF0C1CEAD0521EBF1CEA0D
:1007A000D15392EA0C0F93EA0C0F69D0A2EB03022B
:1007B00080EA010C49024FEA402037D04FF08053C5
:1007C00043EA111143EA10130CF000408B4238BF8A
:1007D0005B0042F17D024FF4000C8B4224BF5B1A98
:1007E00040EA0C00B3EB510F24BFA3EB510340EAE6
:1007F0005C00B3EB910F24BFA3EB910340EA9C0094
:10080000B3EBD10F24BFA3EBD10340EADC001B0103
:1008100018BF5FEA1C1CE0D1FD2A3FF650AF8B42A7
:1008200040EBC25008BF20F0010070470CF0004CB4
:100830004CEA50207F32C2BFD2F1FF0340EAC250DF
:10084000704740F400004FF00003013A37E792F0A0
:10085000000F00F0004C02BF400010F4000F013AFE
:10086000F9D040EA0C0093F0000F01F0004C02BFF9
:10087000490011F4000F013BF9D041EA0C0195E762
:100880000CEAD15392EA0C0F08D142027FF47DAFFB
:1008900093EA0C0F7FF470AF084676E793EA0C0FEB
:1008A00004D14B023FF44CAF08466EE730F0004CE9
:1008B00018BF31F0004CCAD130F000427FF45CAF79
:1008C00031F000437FF43CAF5FE700BF4FF0FF3CE7
:1008D00006E000BF4FF0010C02E000BF4FF0010C3A
:1008E0004DF804CD4FEA40024FEA41037FEA226C03
:1008F00018BF7FEA236C11D001B052EA530C18BF25
:1009000090EA010F58BFB2EB030088BFC81738BF89
:100910006FEAE17018BF40F0010070477FEA226C77
:1009200002D15FEA402C05D17FEA236CE4D15FEA73
:10093000412CE1D05DF8040B704700BF84460846A7
:100940006146FFE70FB5FFF7C9FF002848BF10F168
:10095000000F0FBD4DF808EDFFF7F4FF0CBF0120AD
:1009600000205DF808FB00BF4DF808EDFFF7EAFF37
:1009700034BF012000205DF808FB00BF4DF808EDF2
:10098000FFF7E0FF94BF012000205DF808FB00BFE7
:100990004DF808EDFFF7D2FF94BF012000205DF86D
:1009A00008FB00BF4DF808EDFFF7C8FF34BF01207A
:1009B00000205DF808FB00BF80B400AF4FF4E043B7
:1009C000C4F204034FF4E042C4F2040202F581527F
:1009D00002F11402126842F4806203F5815303F1BC
:1009E00014031A604FF42043C4F206034FF420426C
:1009F000C4F20602D278D2B222F00C02D2B2DA707D
:100A00004FF42043C4F206034FF000021A704FF473
:100A10002043C4F206034FF027025A704FF42043DC
:100A2000C4F206034FF000021A724FF42043C4F2DE
:100A300006034FF000025A724FF42043C4F206033B
:100A40004FF002029A724FF42043C4F206034FF0B3
:100A500000029A704FF42043C4F206034FF0C00224
:100A60005A714FF42043C4F206034FF000025A7348
:100A70004FF42043C4F206034FF000029A734FF480
:100A80002043C4F206034FF00202DA744FF420430D
:100A9000C4F206034FF004025A754FF42043C4F227
:100AA00006034FF0C3029A744FF42043C4F20603C6
:100AB0004FF0C0025A744FF42043C4F206034FF4BF
:100AC0002042C4F20602127CD2B262F07702D2B2A5
:100AD0001A744FF42043C4F206034FF000021A7751
:100AE0004FF42043C4F206034FF001025A774FF44B
:100AF0002043C4F206034FF00A02DA764FF4204393
:100B0000C4F206034FF000029A774FF42043C4F278
:100B100006034FF0F7029A764FF42043C4F206031F
:100B20004FF000025A764FF42043C4F206034FF010
:100B300000021A764FF42043C4F206031B794FF4E7
:100B40002043C4F20603DB794FF42043C4F20603CA
:100B50004FF42042C4F20602D27AD2B202F010025E
:100B6000D2B2DA724FF42043C4F206034FF000020F
:100B70009A714FF42043C4F206034FF02C02DA704E
:100B8000BD4680BC704700BF80B400AF4FF2800309
:100B9000C4F20F034FF28002C4F20F02526822F037
:100BA00020025A604FF28003C4F20F034FF280021A
:100BB000C4F20F02926842F020029A604FF2800362
:100BC000C4F20F034FF28002C4F20F02526922F006
:100BD000600242F020025A61BD4680BC704700BFEF
:100BE00080B400AF4FF4E043C4F204034FF4E0429A
:100BF000C4F2040202F5815202F11C02126842F4AE
:100C0000000203F5815303F11C031A604FF4E04323
:100C1000C4F203034FF000021A604FF4E043C4F241
:100C200003034FF00102C3F80C214FF4E043C4F278
:100C300003034FF00102C3F81C214FF4E043C4F258
:100C400003034FF00102C3F82C214FF4E043C4F238
:100C500003034FF00102C3F83C214FF4E043C4F218
:100C600003034AF68002C0F21212C3F800214FF4C7
:100C7000E043C4F203034FF00002C3F810214FF425
:100C8000E043C4F203034FF00002C3F820214FF405
:100C9000E043C4F203034FF00002C3F830214FF4E5
:100CA000E043C4F203034FF00202C3F808214FF4FB
:100CB000E043C4F203034FF00002C3F818214FF4DD
:100CC000E043C4F203034FF00002C3F828214FF4BD
:100CD000E043C4F203034FF00002C3F838214FF49D
:100CE000E043C4F203034FF4E042C4F20302D2F83B
:100CF000082142F00102C3F80821BD4680BC7047BC
:100D0000684620F007018D4689B500AF00F098FCD9
:100D1000BD46BDE889408546704700BF684620F063
:100D200007018D4681B400AFFFBEBD4681BC85463C
:100D3000704700BF80B400AF4FF0E02240F20003E4
:100D4000C0F20003C2F8083D4FF40053C4F205039B
:100D50004CF22052DA814FF40053C4F205034DF6F1
:100D60002812DA814FF40053C4F205034FF4E972FC
:100D70001A804FF4E043C4F2040303F5825303F1F5
:100D800004034FF00002C0F233121A604FF4E04344
:100D9000C4F204034FF4E042C4F2040202F58152AB
:100DA00002F11802126842F4606203F5815303F104
:100DB00018031A604FF45043C4F207039B78DBB268
:100DC00003F00803002B0DD04FF45043C4F2070387
:100DD0004FF45042C4F207029278D2B242F00802B5
:100DE000D2B29A704FF4E043C4F2040303F5825385
:100DF00003F104034FF089721A604FF4E043C4F228
:100E000004034FF4E042C4F2040202F5805202F1FE
:100E10000402126842F4803203F5805303F10403A4
:100E20001A604FF4E043C4F204034FF4E042C4F20A
:100E30000402126842F440221A604FF41043C4F2D4
:100E400004034FF41042C4F20402926C22F0807248
:100E500022F4E0629A644FF41043C4F204034FF4A6
:100E60001042C4F20402D26C22F0807222F4E062DA
:100E7000DA644FF48043C4F206034FF024025A7040
:100E80004FF4A043C4F206034FF080021A704FF4EF
:100E90008043C4F206034FF48042C4F20602127B80
:100EA000D2B222F00102D2B21A734FF48043C4F2DC
:100EB00006034FF0A2021A704FF48043C4F20603F7
:100EC0004FF48042C4F20602D278D2B202F01F027E
:100ED000D2B2DA704FF48043C4F206034FF0070237
:100EE0001A714FF48043C4F206034FF00C025A719A
:100EF00000BF4FF48043C4F206039B79DBB203F0DA
:100F00000203002BF5D000BF4FF48043C4F2060368
:100F10009B79DBB203F01003002BF5D100BF4FF437
:100F20008043C4F206039B79DBB203F00C03082B69
:100F3000F5D14FF48043C4F206034FF04C025A71CE
:100F400000BF4FF48043C4F206039B79DBB203F089
:100F50000C03082BF5D100BF4FF48043C4F2060305
:100F60009B79DBB203F04003002BF5D04FF48043B4
:100F7000C4F206034FF022021A7000BF4FF4804300
:100F8000C4F206039B79DBB203F00C030C2BF5D102
:100F9000BD4680BC704700BF80B483B000AF7860AE
:100FA0007B6883F3118807F10C07BD4680BC70474E
:100FB00080B500AF4FF41043C4F204034FF4104265
:100FC000C4F20402126922F0807222F4E06242F458
:100FD000E0621A614FF47043C4F207034FF47042A9
:100FE000C4F207025279D2B222F01F02D2B25A7171
:100FF0004FF47043C4F207034FF47042C4F2070287
:101000001279D2B222F00702D2B21A714FF45043D1
:10101000C4F207034FF45042C4F207021278D2B26E
:10102000D2B222F07302D2B242F05002D2B2D2B2A5
:101030001A704FF45043C4F207034FF45042C4F205
:1010400007025278D2B2D2B222F06302D2B242F098
:101050004002D2B2D2B25A704FF45043C4F20703E6
:101060004FF45042C4F207029278D2B222F0190231
:10107000D2B29A704FF46043C4F207034FF00002FB
:101080001A704FF43043C4F204034FF04002C3F827
:10109000A0204FF46143CEF200034FF0000283F82A
:1010A00059234FF46143CEF200034FF0000283F85E
:1010B00044234FF46143CEF200034FF0000283F863
:1010C00045234FF46143CEF200034FF0000283F852
:1010D00046234FF46143CEF200034FF0000283F841
:1010E00047234FF46143CEF200034FF0000283F830
:1010F0002D234FF46143CEF200034FF0000283F83A
:101100002E234FF46143CEF200034FF0000283F828
:1011100014234FF43042C4F204024FF43043C4F2BB
:10112000040399694FF6EC03CFF6F0630B4043F4E8
:10113000102343F4897393614FF43043C4F20403E2
:101140004FF43042C4F20402526922F0807222F459
:10115000E86242F4A0725A614FF43043C4F20403CF
:101160004FF43042C4F20402D2F8C02042F04002F0
:10117000C3F8C0204FF43043C4F204034FF43042AC
:10118000C4F20402D2F8C42022F00102C3F8C42041
:101190004FF43043C4F204034FF43042C4F204026B
:1011A000D2F8C82042F01F02C3F8C8204FF46143B0
:1011B000CEF200034FF46142CEF20002926842F098
:1011C000007242F010029A604FF4E043C4F204034C
:1011D0004FF4E042C4F2040202F5805202F1100220
:1011E000126822F0030203F5805303F110031A6022
:1011F0004FF42043C4F204034FF42042C4F204022B
:10120000126C22F0807222F4E06242F440721A649E
:101210004FF42043C4F204034FF42042C4F204020A
:10122000526C22F0807222F4E06242F440725A64FE
:101230004FF46143CEF200034FF46142CEF200025C
:10124000526842F400525A60FFF79EFCFFF7C8FC58
:10125000FFF7B2FB4FF00000FFF79EFE80BD00BF1E
:1012600080B400AF4FF28003C4F20F034FF280024C
:10127000C4F20F02526842F020025A60BD4680BCA0
:10128000704700BF80B400AF4FF28003C4F20F0379
:101290004FF28002C4F20F02D26842F02002DA60FC
:1012A000BD4680BC704700BF80B485B000AF786099
:1012B00042F6B403C0F200037A689B181B78FB73F4
:1012C0004FF43043C4F20303FA7B02F01F021A60AA
:1012D00000BF4FF43043C4F203031B6803F08003E4
:1012E000002BF6D04FF43043C4F203031B699BB2CA
:1012F000184607F11407BD4680BC704780B400AFA4
:101300004FF4E043C4F204034FF4E042C4F2040299
:1013100002F5815202F11C02126842F0007203F5DC
:10132000815303F11C031A604FF41043C4F2040309
:101330004FF440721A634FF41043C4F204034FF4A5
:1013400040725A634FF41043C4F203034FF4104247
:10135000C4F20302526D42F004025A654FF4104386
:10136000C4F203034FF02802DA604FF41043C4F2D2
:1013700003034FF028025A614FF41043C4F20303F1
:1013800040F246521A614FF41043C4F203034FF483
:10139000A9729A614FF41043C4F2030342F6F23289
:1013A0009A604FF41043C4F203034FF00E021A6028
:1013B000BD4680BC704700BF80B400AF4FF4E0432F
:1013C000C4F204034FF4E042C4F2040202F5815275
:1013D00002F11C02126842F0807203F5815303F19E
:1013E0001C031A604FF43043C4F204034FF430423C
:1013F000C4F20402526842F480625A604FF43043EF
:10140000C4F204034FF43042C4F20402926842F47E
:1014100080629A604FF43043C4F204034FF4806258
:10142000DA604FF40043C4F203034FF40042C4F205
:101430000302526D42F006025A654FF40043C4F2B3
:1014400003034FF02802DA604FF40043C4F20303B1
:101450004FF028025A614FF40043C4F203034FF0E7
:101460002802DA614FF40043C4F203034FF4A97277
:101470001A614FF40043C4F203034FF4A9729A6156
:101480004FF40043C4F203034FF4A9721A624FF4FD
:101490000043C4F2030342F6F2329A604FF4004371
:1014A000C4F203034FF00E021A60BD4680BC7047C1
:1014B00080B400AF4FF4E043C4F204034FF4E042C1
:1014C000C4F2040202F5815202F11C02126842F0D9
:1014D000006203F5815303F11C031A604FF430439B
:1014E000C4F203034FF014029A604FF43043C4F285
:1014F00003034FF01202DA604FF43043C4F20303E7
:101500004FF000021A624FF43043C4F203034FF06D
:101510000E025A624FF43043C4F203034FF000024C
:101520009A614FF43043C4F203034FF00002DA61D2
:101530004FF43043C4F203034FF004029A62BD46F5
:1015400080BC704780B500AF48F22802C1F6FF7238
:1015500048F20003C1F6FF73D31A48F20000C1F647
:10156000FF704FF000011A4600F0E0F880BD00BFA8
:1015700001F052F9FFF7DEFBFFF7E4FF01F082F91B
:1015800001F0FEF801F05AF94FF0000048F20001B6
:10159000C1F6FF7100F02CF80346184600F0AAF8D7
:1015A00080B483B000AF7860FEE700BF80B582B042
:1015B00000AF7860396078684FF00001FFF7E8F914
:1015C0000346002B08D0786801F07FF802463B689C
:1015D0001A604FF0000305E03B684FF000021A600C
:1015E0004FF0FF035BB2184607F10807BD4680BD08
:1015F00080B500AFFFF7DCFCFFF75AFFFFF7DCFE1A
:10160000FFF77CFEFFF72CFE4FF00000FFF74CFECB
:1016100003461A4648F20403C1F6FF731A6048F203
:101620000403C1F6FF731B681846FEF7A7FF0346C5
:10163000184648F20801C1F6FF71FFF7B7FFE3E76C
:1016400080B400AFBD4680BC704700BF684620F044
:1016500007018D4681B400AF4FF43043C4F2040358
:101660009B6903F08073002B0BD04FF43043C4F21E
:1016700004034FF43042C4F20402926942F08072D3
:101680009A61BD4681BC8546704700BF684620F020
:1016900007018D4689B500AF4FF4E043C4F2030360
:1016A0004FF00102C3F80C21FFF7ECFDBD46BDE889
:1016B00089408546704700BF684620F007018D4687
:1016C00081B482B000AF4FF42043C4F206031B790B
:1016D0004FF42043C4F20603DB79FB714FF420433F
:1016E000C4F20603FA79DA7107F10807BD4681BC36
:1016F000854670470B4C08B5054601F081F801F0AE
:1017000065F8236813B1984700202060064C2168D3
:1017100011B18847002222602846BDE80840FFF743
:101720003FBF00BF0C80FF1F1080FF1F10B5044695
:1017300000F002F8204610BD1F2A30B5C9B22FD9DB
:10174000444214F0030406D0121B0023C154013399
:10175000A342FBD1C01829B10D0445EA01630B4334
:1017600043EA012155090ED02C4603461960596001
:101770009960D960196159619961D9612033013C3F
:10178000F4D100EB4510C2F382033BB11C46054681
:10179000013C45F8041BFBD100EB830002F003027F
:1017A00022B1821800F8011B9042FBD130BD2DE917
:1017B000F04F85B08046039200229DF838C09DF816
:1017C0003C4001F8012C01F1FF3AD0B9119AC2B99D
:1017D000BCF1000F01D06F2C31D0642C02D0692CE9
:1017E00040F0AC80022B03D1A1F1020A202005E0D9
:1017F000012B40F0A380A1F1020A2B2001F8020C7A
:101800009CE0692C0FD004D8582C14D0642C1AD129
:1018100009E0752C05D0782C0DD06F2C13D1002346
:101820000EE000230FE000280DDAB0F1004F0CD0DD
:101830004042804609E000231D46102207E0119B2C
:101840001D46082203E0002500E001250A228E1E25
:1018500001964FF0000AB8FBF2F702FB178BBBF1C1
:10186000090F0297B84602D80BF1300B05E0782C2F
:101870000CBF0BF1570B0BF1370B019F029E07F1C9
:10188000FF395FFA8BFBCDF8049087F800B00AF1BE
:1018900001090EB1CA46DEE7082AB8460CD1BCF1F0
:1018A000000F09D0BBF1300F06D04FF03009019F77
:1018B00008F8019C0AF10209039E022E0CD105B919
:1018C00013B1109E013E1096102A109E03D1BCF158
:1018D000000F00D0023E1196119EC91B8919B1F567
:1018E000FF7F29DA394607EB0908119EC1EB08088A
:1018F000B0458A4604DA4FF0300601F8016DF2E790
:10190000102A0AD1BCF1000F07D030B1302001F805
:10191000014CA1F1020A01F8020C0DB12D2306E0E1
:10192000012B01D12B2302E0022B07D120230AF83F
:10193000013C0AF1FF3A01E04FF0000A504605B0C1
:10194000BDE8F08F2DE9F04FADF50D7D1D4620234C
:10195000069089468DF82E30924600269AF80000AF
:10196000002800F0E0815046252100F08DFE079010
:1019700078B9504600F095FE02463618002800F06F
:10198000D28148465146069CA047002840F0CB81B2
:1019900046E1079CCAEB0402B61892B9079A079968
:1019A00052784B1C252A144612D1079F002307F1B9
:1019B000020A984601279C461946089309936E2A05
:1019C00045E048465146069CA0470028E6D127E15D
:1019D0000021099101272B2A00F0A08106DC202A92
:1019E0000FD0232A40F0A780012199E12D2A00F091
:1019F0009381302A40F09F80002F14BF02270027D8
:101A00008EE1099801280CBF0124022487E12B688C
:101A1000DA43D40F0894827804350230A2F16804C6
:101A2000042C00F22B81DFF80CA3DFF80CE31AF88A
:101A300004C01EF904400CB1427801306E2AD4B2C1
:101A400040F01F816E2C00F1010A00F046810BD896
:101A5000632C63D003D8252C66D0582C0CE0642C62
:101A60000CD0692C7AD109E0732C36D001D86F2CB8
:101A700002E0752C12D0782C70D10FE0BCF1030F6E
:101A8000286805F1040B18D0BCF1020F01D100B297
:101A900013E0BCF1010F10D140B20EE0BCF1030F16
:101AA000286805F1040B08D0BCF1020F01D180B207
:101AB00003E0BCF1010F08BFC0B28DE8120103932F
:101AC0008CA93A46099BFFF772FE0546002845D0CF
:101AD0000DF22F20C5EB000C4CE005F1040B944AED
:101AE0002D68002D08BF154641B1089915F801CBA6
:101AF00000293FD09C45A8BF9C463BE0089A284659
:101B000042B11A46059300F0D4FD059B88B3C5EB9E
:101B1000000C2FE000F0C5FD84462BE0296805F19C
:101B2000040B8DF8301002E08DF83040AB460CAD60
:101B30004FF0010C1EE02A2A40F0E080D5F800802A
:101B40005A782C1DB8F1000FB8BFC8F1000825461F
:101B5000B8BF0027581CB8F5FF7F75DB079800F069
:101B6000A0FD02463618002800F0DD80484607999F
:101B700009E79C46002F46D0022F14BF20203020BA
:101B80008DF82E002A782B2A03D02D2A01D0202A66
:101B900011D130280FD1CDF814C048462946012272
:101BA000069B9847DDF814C0002839D00CF1FF31AE
:101BB0000135079101E0CDF81CC0022F14D1612C32
:101BC00001D0412C10D1079C012C29DDCDF814C087
:101BD000484629460222069CA047DDF814C0F8B109
:101BE000079CA01E079002356446444508DA484623
:101BF0000DF12E010122069B984788B10134F4E7CC
:101C0000DDF81CC000E06446BCF1000F01D1C7B98B
:101C100015E0484629466246069B98470028F6D1BB
:101C20004FF0FF367FE020228DF82F2048460DF13F
:101C30002F010122069B98470028F1D0013444452A
:101C4000F1DB36195D4689E62E2A14D142782A2A1C
:101C50003FF4DDAE441C0023A2F1300CBCF1090FAF
:101C6000204605D80A2000FB03C314F8012FF3E730
:101C700001240894D2E600230893CFE64FF0000C2D
:101C8000DCE608DC632A1DD001DC582A13E0642A54
:101C900012D0692A0FE0732A16D009DC6F2A0BD004
:101CA000702A18D1782408234FF0030C0121C9E6CB
:101CB000752A01D0782A0ED1089A52B1022F08BF96
:101CC0000127BFE6089A32B9BCF1000F18BFFF2404
:101CD000B8E60123B6E6FF24B4E6BCF1020F05F135
:101CE000040B2D6806D0BCF1030F05D0BCF1000F2A
:101CF000A8D101E02E80A5E72E60A3E74FF00008F1
:101D0000A2F13004092C18463FF625AF0A2202FB47
:101D1000084801334278F3E7002701E001240994E1
:101D200013F8012F57E630460DF50D7DBDE8F08F15
:101D3000CC280000D2280000CD2800002DE9F04F6B
:101D4000A5B00024074688460B9392460A9408944F
:101D5000A3460694079426469AF80050002D00F0FA
:101D60003883284600F072FB08B30AF10105AA4641
:101D700005F101059AF8000000F068FB0028F6D193
:101D8000002C40F02483002140460A46B84705460F
:101D900000F05CFB08B10136F5E7681C04D12E9811
:101DA000002800F01683012440462946ECE2252D48
:101DB00015D0A4B9214640462246B847C1B2A9422F
:101DC00009D001224046B8472E9A002A00F001832C
:101DD0000AF1010AFBE201360AF1010ABCE700211F
:101DE00028221AA8FFF7A2FC9AF801906FF0004C85
:101DF000B9F1250FCDF86CC04B4615D18DF86B901D
:101E00000DF1680EBEE80F0010AD0FC5BEE80F0063
:101E10000FC59EE8030085E80300002163460AF130
:101E2000020A09918C4607E12A2B02D00AF101052A
:101E300006E001238DF868309AF802300AF10205B5
:101E4000A3F13002092A31D8681C4FF0000C303B56
:101E50000A2101FB0C3C054610F8013BA3F13002BE
:101E6000092AF4D9CDF86CC0BCF1000F1BD14FF09A
:101E7000FF098DF86B900DF1680ABAE80F000DF1BB
:101E8000400EAEE80F00BAE80F00AEE80F009AE887
:101E900003009DF86820CDF824C08EE8030005F10A
:101EA000010A6346BAE001208DF86900682B05D06D
:101EB0006C2B0FD103238DF86A3009E06A78022178
:101EC000682A8DF86A1003D101208DF86A002D1858
:101ED0006B7801358DF86B30583B202B7FD8DFE8CD
:101EE00003F0817E7E317E7E7E7E7E7E7E16817ECA
:101EF0007E7E7E817E7E7E7E8181117E7E1B7E81C6
:101F00007E7E810003218DF86A10782368E09DF8B9
:101F10006A00002866D062E09DF86A2012B1FF20B6
:101F20008DF86B00002324A9CA180133FF20202B51
:101F300002F8200CF7D1C121FE228DF871108DF826
:101F400074204FE09DF86A3013B1FF218DF86B10BB
:101F50006B785E2B02D00135002102E0AB780121C5
:101F600002355D2B07D120226B788DF87B2001355F
:101F700001E0EB78033593B35D2B00F04882C3F3A7
:101F8000C4020DF1900E724403F0070012F820AC69
:101F90004FF0010909FA00F04AEA000002F8200CAB
:101FA00068782D2818D1AA78B2B15D2A14D00133EF
:101FB0009342DEDC0DF1900CC3F3C400604403F0E7
:101FC000070E10F820CC4FF0010909FA0EFA4CEA7E
:101FD0000A0E00F820ECEAE701350346CBE7FF23C1
:101FE0008DF86B300DF1680ABAE80F000DF1400969
:101FF000A9E80F00BAE80F00A9E80F009AE803006B
:1020000089E803009DF86A109DF868209DF869C072
:102010009DF86B901B9B099105F1010A3AB9B9F142
:10202000250F09D00B98021D05680B9200E00025D2
:10203000B9F16E0F01D1B6E100250CB101240EE01B
:102040000493CDF814C0404621460222B847049BB1
:10205000DDF814C018B12E980028EFD1B9E1B9F11C
:10206000690F2ED015D8B9F15B0F00F01E8106D88C
:10207000B9F1250F00F0E180B9F1580F1DE0B9F179
:10208000630F00F08C80B9F1640F40F0A2810A2048
:1020900018E0B9F1730F00F0EC8009D8B9F16E0FB8
:1020A00000F08181B9F16F0F40F09381082041E089
:1020B000B9F1750F3DD0B9F1780F40F08A81102049
:1020C00038E00020CCB90DA900910EAA0FA9019209
:1020D00002913A461946434600F0CCF90D9B23B9CC
:1020E0002E9868B90121089173E10E9AF6184AB149
:1020F000B0F1004F06D0404204E00124002001E08E
:10210000012418467DB1099B032B08D8DFE803F0B2
:1021100006020406287002E0288000E0286014B956
:10212000079D6A1C079206980123411C069108939B
:1021300012E60A20D4B90DA900910EAA0FA90192A6
:1021400002913A461946434600F094F90D9B2BB98B
:102150002E980028C6D00124184609E00E9AF618D9
:1021600032B1B0F1004F03D0404201E00124002021
:102170007DB10999032908D8DFE801F006020406B9
:10218000287002E0288000E0286014B9079D6B1CCD
:102190000793069A0121501C06900891DCE5BCF1DA
:1021A000000F08BF0123002D2ED000220D92002C1D
:1021B00040F00D8105EB03094D4516D02E9921B154
:1021C0000D9800280FDA01220A92002140460A46A3
:1021D000B847B0F1FF3F834607D005F801BB0D9922
:1021E0004B1C0D93E8E700230A930D98002800F09C
:1021F0009D802E9D1DB10A99002900F0E880079B63
:102200005A1C3618079214E00D955D1E691C0CD0FF
:10221000002140460A46B847013DB0F1FF3F8346E2
:1022200003D00D98431C0D93F0E70D99002900F0A1
:10223000D0800698451C06958EE5002C40F0C480A1
:10224000002140460A46B847054600F0FFF808B1AD
:102250000136F5E7252D08D0012240462946B8472A
:102260002E9A002A3FF43EAFAEE0012301360893D8
:1022700072E5C4B94046214622460493B847049B00
:102280008146049300F0E2F8049B20B1002101365E
:1022900040460A46F1E7404649460122B847012038
:1022A0000890049B01E001220892002D49D00022F1
:1022B0000D92002C40F08B80013B5A1C99462AD08D
:1022C0002E9820B10D99002923DC01220A920021C9
:1022D00040460A460493B847B0F1FF3F834604984E
:1022E00019D05FFA8BF20DF1900E431E0EEBD20067
:1022F0000BF007014FF0010C10F8480C0CFA01F13B
:10230000084208D005F8012B0D9A02EB0C010D9143
:10231000D3E700230A930D9B5FFA8BF11BB12E9834
:1023200040B10A9A32B940460122B8472E9B002B91
:102330004FD04CE0F61800232B70079D681C0790C7
:1023400027E00D955D1E6B1CA94619D00021404663
:102350000A46B847B0F1FF3F834611D0CBF3C40221
:1023600024A988180BF00703012110F8482C01FA62
:1023700003F3013D1A4203D00D9841180D91E2E795
:102380000D9D25B9404659460122B847E4E4761927
:102390005946B9F1000F02DB40460122B8470699C1
:1023A0004A1C0692D8E4002D3FF4D6AC099A032AC1
:1023B0003FF6D2ACDFE802F0040602042E80CBE444
:1023C0002E60C9E42E70C7E401240894C4E40124FB
:1023D000C2E4404600210222B84728B1069B1BBB3D
:1023E0004FF0FF3207921FE0069AEAB90899D9B177
:1023F00011464046B8470699044602224046B8476F
:102400000028EDD1404621460122B8470CE00029C2
:102410003FF4E8AD00231AA8C2180133117AC8436B
:10242000202B1072F7D1DDE5079825B0BDE8F08FBD
:10243000B0F5807F05D8044B1818417801F00100F1
:1024400070470020704700BFD7280000B0F5807F9C
:1024500006D8044B1818417801F01002D0B270472A
:1024600000207047D7280000A0F16103192B98BF06
:10247000203870472DE9F74F15461E460E9A0D9BE2
:1024800001910021B0F100091960116018DBB9F168
:10249000010F15D0B9F1240F12DC0198884207DD35
:1024A00030460A46A8474FF0010B82465C4602E0E0
:1024B0008A468B464024C846B9F1000F07D002E097
:1024C0008A468B4640244FF0FF38B8FBF9F80027C6
:1024D0000097019B9B4500F3C180BAF1FF3F00F0DC
:1024E000BD8014F0600F40F0B980601E0F28F0D856
:1024F00001A353F820F000BF392500008525000016
:10250000D3240000A9250000D3240000D324000018
:10251000D3240000DB250000D3240000D3240000D6
:10252000D3240000D3240000D3240000D3240000CF
:10253000D3240000DB2500005046FFF787FF01464B
:1025400040B1002130460A46A847009B8246581CED
:102550000090BEE7BAF12B0F06D130460A46A847D5
:102560000BF1010B82460BE0BAF12D0F08D10A46A0
:102570003046A8470D9A01210BF1010B82461160EC
:102580000224A6E7B9F1000F02D0B9F1100F63D110
:10259000BAF1300F60D1002130460A46A8470BF14E
:1025A000010B8246042494E7BAF1580F02D0BAF125
:1025B000780F0AD1002130460A46A8470BF1010BDB
:1025C000824608244FF0100983E71024B9F1000F68
:1025D0007FF47FAF4FF008097BE7B9F1000F08BF28
:1025E0004FF00A09B8F1000F03D14FF0FF3EBEFBD8
:1025F000F9F8AAF13002092A02D84A4512DB0AE0AA
:102600005046FFF715FF30B15046FFF72DFFA0F100
:1026100036034B4504DD102C14BF4024202458E71A
:10262000A0F13702474598BF0E9C07FB09F798BFFA
:1026300021680E9C88BF0121D3B2F843834288BF32
:10264000012121600021D71930460A46A8470BF125
:10265000010B824610243CE708243AE714F03404C6
:1026600003D10C9F3C60274606E000990C9A0BF1C1
:10267000FF3C0CEB01001060304651460122A84798
:102680003846BDE8FE8F00BFC9B2034613F8012BE0
:102690001AB18A4204D01846F7E7002918BF002073
:1026A000704703461A46013311780029FAD1101AEF
:1026B0007047C9B28218904205D010F8013B8B4296
:1026C000F9D1013870470020704700F001B80000D0
:1026D00000F0FF42B2F1FF4FF8B501460446034651
:1026E0000AD1264A212111600146FDF79FFF0146CC
:1026F0002046FDF793FE0FE000280FDC20F000429B
:10270000002A38D050B11D4B212201461A60FDF736
:1027100083FE0146FEF73EF804462CE0DC0D06D1B0
:10272000080202D449000134FAE7C4F1010421F09F
:102730007F417F3C21F40000E20740F4000548BFE0
:102740006D00002263104FF080716C001746192550
:102750007E18A64202DC7718A41B521864004908B0
:10276000013DF5D114B102F001001218DB0503F1AF
:102770007C5404EB52042046F8BD00BF2480FF1FA8
:1027800010B50C4C0C4B9C4203D054F8040B804702
:10279000F8E70A4C0A48844203D054F8043B9847AF
:1027A000F8E7084C08498C4203D054F8042B9047B2
:1027B000F8E710BDD8290000D8290000D82900006A
:1027C000D8290000D8290000D829000010B5084CED
:1027D000084B9C4203D054F8042B9047F8E7064C72
:1027E0000648844203D054F8041D8847F8E710BD1A
:1027F000D8290000D8290000D8290000D8290000D5
:10280000044B10B51C6824B16168A068884724682F
:10281000F9E710BD1480FF1F074B1846002800F091
:102820000880854681B04FF000006FEA00000090FC
:1028300001B0F746704700BF00000020F746704720
:1028400088421ED0EAB18B0709D1830707D1032A3A
:1028500005D951F8043B043A40F8043BF2E7CB07B2
:1028600009D4C30707D4012A05D931F8023B023A3B
:1028700020F8023BE6E711F8013B013A00F8013B82
:10288000E0E7704710B50A4C8CB1083454F8081CC6
:1028900031B154F8040C54F80C2BFFF7D1FFF5E7D5
:1028A00054F8043C002BF4D120680028F1D110BD6D
:1028B000D8290000050E08090D0C06070F040013A7
:1028C00003931A9217C585848687C400000100000F
:1028D00000010200000003008080808080808080F2
:1028E0008090909090908080808080808080808098
:1028F00080808080808080801804040404040404A4
:102900000404040404040404020202020202020297
:1029100002020404040404040443434343434341C4
:102920004141414141414141414141414141414197
:1029300041414104040404040423232323232321C9
:102940002121212121212121212121212121212177
:102950002121210404040480000000000000000084
:102960000000000000000000000000000000000067
:102970000000000000000000000000000000000057
:102980000000000000000000000000000000000047
:102990000000000000000000000000000000000037
:1029A0000000000000000000000000000000000027
:1029B0000000000000000000000000000000000017
:1029C0000000000000000000000000000000000007
:0829D0000000000000000000FF
:1029D800D82900000080FF1F00000000D82900004F
:1029E80000000020000000000000000000000000BF
:0429F80000000000DB
:040000030000157173
:00000001FF
