:020000040000FA
:1000000070040020AD040000B5040000B704000037
:10001000B9040000BB040000BD04000000000000A3
:10002000000000000000000000000000BF0400000D
:10003000C104000000000000C304000071070000BC
:10004000C7040000C7040000C7040000C704000084
:10005000C7040000C7040000C7040000C704000074
:10006000C7040000C7040000C7040000C704000064
:10007000C7040000C7040000C7040000C704000054
:10008000C7040000C7040000C7040000C704000044
:10009000C7040000C7040000C7040000C704000034
:1000A000C7040000C7040000C7040000C704000024
:1000B000C7040000C7040000C7040000C704000014
:1000C000C7040000C7040000C7040000C704000004
:1000D000C7040000C7040000C7040000C7040000F4
:1000E000C7040000C7040000C7040000C7040000E4
:1000F000C704000061090000C7040000C704000035
:10010000C7040000C7040000C7040000C7040000C3
:10011000C7040000C7040000C7040000C7040000B3
:10012000C7040000C7040000C7040000C7040000A3
:10013000C7040000C7040000C7040000C704000093
:10014000C7040000C7040000C7040000C704000083
:10015000C7040000C7040000C7040000C704000073
:10016000C7040000C7040000C7040000C704000063
:10017000C7040000C7040000C7040000C704000053
:10018000C7040000C7040000C7040000C704000043
:10019000C7040000C7040000C7040000C704000033
:1001A000C704000005070000C7040000C7040000E2
:1001B000C7040000C7040000C7040000C704000013
:1001C000C7040000C7040000C7040000C704000003
:1001D000C7040000C7040000C7040000C7040000F3
:1001E000C7040000C7040000C7040000C7040000E3
:10040000FFFFFFFFFFFFFFFFFFFFFFFFFEFFFFFFFD
:1004100000F002F800F03AF80AA090E8000C8244DC
:100420008344AAF10107DA4501D100F02FF8AFF2B9
:10043000090EBAE80F0013F0010F18BFFB1A43F0C2
:1004400001031847C4050000E4050000103A24BF6A
:1004500078C878C1FAD8520724BF30C830C144BF29
:1004600004680C607047000000230024002500266B
:10047000103A28BF78C1FBD8520728BF30C148BF07
:100480000B6070471FB51FBD10B510BD00F02FF8F1
:100490001146FFF7F7FF00F06BFA00F04DF803B4D8
:1004A000FFF7F2FF03BC00F055F800000948804751
:1004B00009480047FEE7FEE7FEE7FEE7FEE7FEE746
:1004C000FEE7FEE7FEE7FEE704480549034A054B61
:1004D0007047000079070000110400007000002040
:1004E0007004002070000020704770477047754608
:1004F00000F02CF8AE4605006946534620F0070090
:10050000854618B020B5FFF7DFFFBDE820404FF06B
:1005100000064FF000074FF000084FF0000B21F0ED
:100520000701AC46ACE8C009ACE8C009ACE8C009BA
:10053000ACE8C0098D46704710B50446AFF30080A3
:100540002046BDE81040FFF7AABF000000487047F2
:100550000C00002001491820ABBEFEE72600020077
:10056000704700000A48C06B40F000600849C8634B
:100570001420084988601220C860002008620E20FC
:10058000486200208861C8610420886270470000CA
:100590000080044000B0034001460848425C02F07D
:1005A0001F00074B186000BF0548006800F080007E
:1005B0000028F9D00248006980B27047F0090000B5
:1005C00000B003401548C06B40F080701349C86309
:1005D0001348406840F480601149486008468068CC
:1005E00040F4806088600815C8600E48406D40F097
:1005F00006000C4948652820C86028210948416147
:10060000C1614FF4A97101618161016242F6F2306A
:10061000044988600E200860704700000080044094
:1006200000B00440008003401148C06B40F00070EF
:100630000F49C8634FF440700E49086348630E4881
:10064000406D40F004000C4948652820C86028210E
:100650000948416140F2465101614FF4A97181613D
:1006600042F6F230044988600E20086070470000AE
:100670000080044000900440009003400C48806BD0
:1006800040F400600A49886388150A4948610A48AD
:10069000006820F0200008498039C1F88000084631
:1006A000D0F8940040F02000C1F89400704700009A
:1006B0000080044000B0044080F00F40044800680F
:1006C00040F0200002498839C1F8880070470000D6
:1006D00088F00F400448006840F0200002498C393F
:1006E000C1F88C00704700008CF00F4000F01F0232
:1006F000012191404209920002F1E022C2F800116A
:10070000704700000548806900F0807028B10348F8
:10071000806940F0807001498861704700B00440F2
:1007200010B50F48806B40F400600D4988630D4898
:1007300080690D4908430B4988610846806920F0AB
:10074000010088610948006808499439C1F894009B
:1007500040200449A03108605920FFF7C7FF10BDB1
:100760000080044000B0044002010A0094F00F40F1
:1007700000B5FFF7AFFF00BD4CF220505349C881D0
:100780004DF62810C8814FF4E9700880504851494F
:1007900048640846806B40F4007088634E48807857
:1007A00000F0080028B14C48807840F008004A4921
:1007B00088704FF08970474948640846406840F4A3
:1007C000803048604548006840F440204349086054
:1007D0004348806C43490840414988640846C06CDE
:1007E000404908403E49C86424203F494870802061
:1007F0003E4908703C48007B00F0FE003A4908730F
:10080000A22008700846C07800F01F00C8700720BA
:1008100008710C20487100BF3348807900F0020055
:100820000028F9D000BF3048807900F0100000287F
:10083000F9D100BF2C48807900F00C000828F9D1CC
:100840004C202949487100BF2748807900F00C00EE
:100850000828F9D100BF2448807900F04000002822
:10086000F9D022202049087000BF1F48807900F08D
:100870000C000C28F9D11A48006920F0807040F46F
:10088000E060174908611A48407900F0E000184913
:1008900048710846007900F0F80008710E480078A9
:1008A00000F0DC0040F050000B490870084640782A
:1008B00000F0DC0040F0400048700846807800F00E
:1008C000E600887000200B49087070470020054042
:1008D000000033010080044000D007400070044055
:1008E00000900440FFF8FFFE004006400050064024
:1008F00000F0074000E0074010B51648806B40F458
:100900008060144988630846406B40F48060486307
:1009100040F21330104908644FF4517048640F4896
:10092000C07800F0F3000D49C8700020087027203F
:10093000487002208872042088700220C874042045
:100940004875882008742C20C8702D20FFF7CEFE33
:1009500010BD00000080044000A0044000A006403C
:10096000024800790148C0797047000000A00640A5
:100970001B49481EB0F1807F00D31BE0481E4FF09A
:10098000E022506150170F22002807DA13071D0ECE
:10099000144B00F00F04241F1D5503E013071C0E19
:1009A000114B1C5400BF00204FF0E0229061072043
:1009B000106100BFFFF7B4FEFFF760FEFFF702FE15
:1009C000FFF732FEFFF7CEFDFFF796FFFFF776FE4B
:1009D00004E00020FFF7E0FD04490860F9E70000AB
:1009E00000DD6D0018ED00E000E400E008000020EC
:1009F000050E08090D0C06070F04001303931A9245
:100A000017C585848687C400280A000000000020DE
:100A10000C0000004C040000340A00000C00002010
:100A200064040000680400000000000000000000F2
:040A300000000000C2
:0400000500000411E2
:00000001FF
