:020000040000FA
:10000000D01A0020AD040000B5040000B7040000C1
:10001000B9040000BB040000BD04000000000000A3
:10002000000000000000000000000000BF0400000D
:10003000C104000000000000C3040000051C000013
:10004000C7040000C7040000C7040000C704000084
:10005000C7040000C7040000C7040000C704000074
:10006000C7040000C7040000C7040000C704000064
:10007000C7040000C7040000C7040000C704000054
:10008000C7040000C7040000C7040000C704000044
:10009000C7040000C7040000C7040000C704000034
:1000A000C7040000C7040000C7040000C704000024
:1000B000C7040000C7040000C7040000C704000014
:1000C000C7040000C7040000C7040000C704000004
:1000D000C7040000C7040000C7040000C7040000F4
:1000E000C7040000C7040000C7040000C7040000E4
:1000F000C7040000D91E0000C7040000C7040000A8
:10010000C7040000751F0000C7040000C7040000FA
:10011000C7040000C7040000C7040000C7040000B3
:10012000C7040000C7040000C7040000C7040000A3
:10013000C7040000C7040000C7040000C704000093
:10014000C7040000C7040000C7040000C704000083
:10015000C7040000C7040000C7040000C704000073
:10016000C7040000C7040000C7040000C704000063
:10017000C7040000C7040000C7040000C704000053
:10018000C7040000C7040000C7040000C704000043
:10019000C7040000C7040000C7040000C704000033
:1001A000C7040000511B0000C7040000C704000082
:1001B000C7040000C7040000C7040000C704000013
:1001C000C7040000C7040000C7040000C704000003
:1001D000C7040000C7040000C7040000C7040000F3
:1001E000C7040000C7040000C7040000C7040000E3
:10040000FFFFFFFFFFFFFFFFFFFFFFFFFEFFFFFFFD
:1004100000F002F800F03AF80AA090E8000C8244DC
:100420008344AAF10107DA4501D100F02FF8AFF2B9
:10043000090EBAE80F0013F0010F18BFFB1A43F0C2
:10044000010318477025000090250000103A24BFD2
:1004500078C878C1FAD8520724BF30C830C144BF29
:1004600004680C607047000000230024002500266B
:10047000103A28BF78C1FBD8520728BF30C148BF07
:100480000B6070471FB51FBD10B510BD01F035FAE8
:100490001146FFF7F7FF01F04BFE01F053FA03B4EA
:1004A000FFF7F2FF03BC01F05BFA00000948804748
:1004B00009480047FEE7FEE7FEE7FEE7FEE7FEE746
:1004C000FEE7FEE7FEE7FEE704480549034A054B61
:1004D00070470000FD1C000011040000D016002031
:1004E000D01A0020D016002070B4930814D000BF9A
:1004F000F0E802C62CF0004CF0E8024541F804CBCD
:1005000026F0004624F0004C41F8046B25F000442E
:10051000E1E802C45B1EEBD112F0030204BF70BC21
:100520007047B2F1004F20D2002ADCBF70BC704788
:10053000001F091F12F0010F05D050F8043F23F0EF
:10054000004341F8043F520804BF70BC7047436841
:10055000521E23F000434B6050F8083F23F0004345
:1005600041F8083FF3D170BC704750F8043B521E6D
:1005700023F0004341F8043BF7D170BC7047000002
:10058000F0B4930818BF002623D000BF50F8047BB6
:1005900050F8045B002F50F8044B50F804CBD8BF40
:1005A00087FAA6F741F8047B002DD8BF85FAA6F597
:1005B00041F8045B002CD8BF84FAA6F441F8044B40
:1005C000BCF1000FD8BF8CFAA6FC41F804CB5B1E2F
:1005D000DCD112F0030204BFF0BC7047B2F1004F4F
:1005E00032D2002ADCBFF0BC7047001F091F12F096
:1005F000010F0BD04368002B05DCB3F1004F14BF93
:100600005B426FF0004341F8043F001D530804BFF4
:10061000F0BC70474268002A05DCB2F1004F14BFFD
:1006200052426FF000424A608268002A05DCB2F153
:10063000004F14BF52426FF0004241F8082F0830BB
:100640005B1EE7D1F0BC704750F8043B002B05DC83
:10065000B3F1004F14BF5B426FF0004341F8043B1D
:10066000521EF1D1F0BC70472DE9FF4FA3B06FF0DF
:100670000302239823994068029089682091239966
:100680000988189102EB8101084403902698C0085C
:100690001F9000F084831898C00821902498016866
:1006A000039801602498039950F8042F41F8042F0F
:1006B00050F8042F41F8042F50F8042F41F8042F6C
:1006C00000220C9201921392129210920F920E92AB
:1006D0000D92209D029C50F8042F41F8042F50F8F1
:1006E000042F41F8042F50F8042F41F8042F4268DA
:1006F0004A60083108300391249054F8040B0B90A1
:1007000054F804AB54F8040B089054F8049BDDF83B
:1007100084B054F8048BBBF1000F54F8047B54F8F8
:10072000046B00F0B28200BF55F8040B009054F83F
:10073000040B0A9000990B9801F03AFF1190504673
:10074000009901F035FF1B900099089801F030FFE7
:1007500017904846009901F02BFF1A9040460099E7
:1007600001F026FF19903846009901F021FF1690FC
:100770003046009901F01CFF159000990A9801F08D
:1007800017FF149055F8040B009054F8040B0B90CD
:100790001199019801F0B6FD01901B99139801F091
:1007A000B1FD13901799129801F0ACFD12901A99AF
:1007B000109801F0A7FD109019990F9801F0A2FD73
:1007C0000F9016990E9801F09DFD0E9015990D98B9
:1007D00001F098FD0D9014990C9801F093FD0C9088
:1007E0005046009901F0E4FE11900099089801F03C
:1007F000DFFE1B904846009901F0DAFE1790404654
:10080000009901F0D5FE1A903846009901F0D0FE0B
:1008100019903046009901F0CBFE169000990A9885
:1008200001F0C6FE159000990B9801F0C1FE1490DE
:1008300055F8040B009054F804AB1199019801F09D
:1008400061FD01901B99139801F05CFD13901799BD
:10085000129801F057FD12901A99109801F052FD6C
:10086000109019990F9801F04DFD0F9016990E9860
:1008700001F048FD0E9015990D9801F043FD0D9083
:1008800014990C9801F03EFD0C900099089801F025
:100890008FFE11904846009901F08AFE1B90404659
:1008A000009901F085FE17903846009901F080FE0E
:1008B0001A903046009901F07BFE199000990A9831
:1008C00001F076FE169000990B9801F071FE1590DC
:1008D0005046009901F06CFE149055F8040B0090FE
:1008E00054F8040B08901199019801F00BFD019048
:1008F0001B99139801F006FD13901799129801F0B7
:1009000001FD12901A99109801F0FCFC10901999B1
:100910000F9801F0F7FC0F9016990E9801F0F2FC79
:100920000E9015990D9801F0EDFC0D9014990C980E
:1009300001F0E8FC0C904846009901F039FE119056
:100940004046009901F034FE1B903846009901F0B2
:100950002FFE17903046009901F02AFE1A90009958
:100960000A9801F025FE199000990B9801F020FEDD
:1009700016905046009901F01BFE159000990898BA
:1009800001F016FE149055F8040B009054F8049BE7
:100990001199019801F0B6FC01901B99139801F090
:1009A000B1FC13901799129801F0ACFC12901A99AF
:1009B000109801F0A7FC109019990F9801F0A2FC73
:1009C0000F9016990E9801F09DFC0E9015990D98B8
:1009D00001F098FC0D9014990C9801F093FC0C9088
:1009E0004046009901F0E4FD11903846009901F06D
:1009F000DFFD1B903046009901F0DAFD1790009959
:100A00000A9801F0D5FD1A9000990B9801F0D0FDDD
:100A100019905046009901F0CBFD16900099089866
:100A200001F0C6FD15904846009901F0C1FD1490F3
:100A300055F8040B009054F8048B1199019801F0BB
:100A400061FC01901B99139801F05CFC13901799BD
:100A5000129801F057FC12901A99109801F052FC6C
:100A6000109019990F9801F04DFC0F9016990E985F
:100A700001F048FC0E9015990D9801F043FC0D9083
:100A800014990C9801F03EFC0C903846009901F046
:100A90008FFD11903046009901F08AFD1B9000995E
:100AA0000A9801F085FD179000990B9801F080FDE0
:100AB0001A905046009901F07BFD19900099089812
:100AC00001F076FD16904846009901F071FD1590F1
:100AD0004046009901F06CFD149055F8040B00900D
:100AE00054F8047B1199019801F00CFC01901B99BA
:100AF000139801F007FC13901799129801F002FC6B
:100B000012901A99109801F0FDFB109019990F9806
:100B100001F0F8FB0F9016990E9801F0F3FB0E9080
:100B200015990D9801F0EEFB0D9014990C9801F0B9
:100B3000E9FB0C903046009901F03AFD11900099C4
:100B40000A9801F035FD1B9000990B9801F030FDDB
:100B500017905046009901F02BFD1A9000990898C3
:100B600001F026FD19904846009901F021FD1690EC
:100B70004046009901F01CFD15903846009901F09F
:100B800017FD149055F8040B009054F8046B11995C
:100B9000019801F0B7FB01901B99139801F0B2FB8B
:100BA00013901799129801F0ADFB12901A991098B2
:100BB00001F0A8FB109019990F9801F0A3FB0F907A
:100BC00016990E9801F09EFB0E9015990D9801F064
:100BD00099FB0D9014990C9801F094FB0C900099DE
:100BE0000A9801F0E5FC119000990B9801F0E0FCE7
:100BF0001B905046009901F0DBFC17900099089873
:100C000001F0D6FC1A904846009901F0D1FC1990E9
:100C10004046009901F0CCFC16903846009901F04E
:100C2000C7FC15903046009901F0C2FC1490ABF15E
:100C3000010B1199019801F065FB01901B99139824
:100C400001F060FB13901799129801F05BFB129072
:100C50001A99109801F056FB109019990F9801F00D
:100C600051FB0F9016990E9801F04CFB0E901599C0
:100C70000D9801F047FB0D9014990C9801F042FB80
:100C80000C90BBF1000F7FF44FAD189810F0070BDC
:100C900063D000BF55F8040B009054F8040B0A9081
:100CA00000990B9801F084FC11905046009901F0D6
:100CB0007FFC1B900099089801F07AFC1790484639
:100CC000009901F075FC1A904046009901F070FC03
:100CD00019903846009901F06BFC16903046009947
:100CE00001F066FC159000990A9801F061FCCDF8BE
:100CF0002CA0DDF820A0CDF82090C1461490B84675
:100D000037460A9E1199019801F0FCFA01901B994F
:100D1000139801F0F7FA13901799129801F0F2FA6C
:100D200012901A99109801F0EDFA109019990F98F5
:100D300001F0E8FA0F9016990E9801F0E3FA0E9080
:100D400015990D9801F0DEFA0D9014990C9801F0A8
:100D5000D9FA0C90BBF1010B9CD102982030029083
:100D60002599019808602598139940F8041F129955
:100D700040F8041F109940F8041F0F9940F8041F11
:100D80000E9940F8041F0D9940F8041F0C9941601A
:100D9000083025901F98401E1F907FF47FAC269846
:100DA00010F0070850D024980025016803980160CE
:100DB0002498209E001D24900398029C001D0390FF
:100DC000DDF860903168206801F0F2FB294601F0FF
:100DD00099FA371D261D0546B9F1010429D0B4F151
:100DE000004F7DD2002C24DD361F3F1F14F0010F71
:100DF00009D057F8041F56F8040F01F0D9FB294613
:100E000001F080FA0546641013D07968706801F02B
:100E1000CFFB294601F076FA054657F8081F56F829
:100E2000080F01F0C5FB294601F06CFA0546641E67
:100E3000EBD1259805602598001D25900298001D8E
:100E40000290B8F10108AED12398189940684C1E61
:100E5000A30820D0B3F1004F56D2002B1BDD029A1D
:100E600001469C4652F8045B41F8045B52F8045B6F
:100E700041F8045B52F8085B41F8085B52F8045CE7
:100E800041F8045CBCF1010CECD1029900EB0310B9
:100E900001EB0311029114F0030104BF27B0BDE878
:100EA000F08FB1F1004F44D20029DCBF27B0BDE87C
:100EB000F08F031F029A121F11F0010F03D052F896
:100EC000040F43F8040F480804BF27B0BDE8F08FB3
:100ED0005168596052F8081F43F8081F401E00E08F
:100EE00003E0F5D127B0BDE8F08F3968306801F034
:100EF0005FFB294601F006FA0546641E06F104066A
:100F000007F10407F1D194E70299096840F8041B3E
:100F1000029951F8042F40F8042B51F8042F40F89F
:100F2000042B4A68083140F8042B02915B1EEBD178
:100F3000B1E7029A126840F8042B029A121D02923D
:100F4000491EF6D127B0BDE8F08F70B5044604986D
:100F5000218008448000011F1D461846A26000F051
:100F60002BFC656070BD70B5044604982180084470
:100F70008000011F1D461846A26000F01DFC656040
:100F800070BD00002DE9FF4F86B06FF00301069899
:100F9000D0E901E0019006980088009001EB800004
:100FA0007044BD490290A1FB032040080390A0EBD0
:100FB0008000184409900098A1FB00104008A0EBA5
:100FC000800104900098084405900398002879D087
:100FD00007980025AC46016802982C462E46016011
:100FE000079802992B4650F8042F41F8042F4268C5
:100FF0004A6008310830029107900EF10400DDF8D4
:101000001090019FDEF8008050F8041B2A46B9F1C9
:10101000000F20D057F804AB50F804BBC8FB0A5CA3
:10102000C1FB0A46CBFB0A2357F804AB50F8048BEC
:10103000C1FB0A5CCBFB0A46C8FB0A2357F804AB8A
:1010400050F8041BCBFB0A5CC8FB0A46C1FB0A2311
:10105000B9F10109DED1DDF81490B9F1000F19D012
:10106000B9F1004F7DD2B9F1000F13DDC24657F838
:10107000048BCAFB085CC1FB084650F804AB8AFB32
:10108000088B18EB02024BEB030388465146B9F17B
:101090000109EBD1E90F41EA4C0008994FEAD47CF1
:1010A000D20F086008984CEA46010EF10C0E40F889
:1010B000041F42EA43014160083008900398401E33
:1010C000039085D10998002860D00098801E049074
:1010D00007980EF104050168029801600798DDE9A0
:1010E0000023001D079002981E1D001D0290DEF8CF
:1010F00000001968521E80FB0101039238D0B2F142
:10110000004F7DD2049F002F27DD2B1FDDF80CC080
:10111000321F1CF0010F05D153F804CF52F8044FD1
:10112000CCFB0401D3F804804FF0000CD2F80490FB
:1011300064467F100ED000BF53F808BF52F808AFC6
:10114000C8FB0901CBFB0AC4D3F80480D2F8049091
:101150007F1EF1D110EB0C006141039A521E07D49F
:1011600000E063E055F8223056F82220C3FB02016C
:10117000C00F40EA410008990EF1040E086008987B
:10118000001D08900998401E0990A1D10698009969
:101190004068A1F1010C5FEA9C031DD0B3F1004F40
:1011A0005DD2002B18DD724601461C4652F8045BE6
:1011B00041F8045B52F8045B41F8045B52F8085BA9
:1011C00041F8085B52F8045C41F8045C641EEDD100
:1011D0000EEB031E00EB03101CF0030104BF0AB06A
:1011E000BDE8F08FB1F1004F4CD20029DCBF0AB04E
:1011F000BDE8F08FAEF10402001F11F0010F00E016
:1012000024E003D052F8043F40F8043F490804BFEB
:101210000AB0BDE8F08F5368436052F8083F40F8C9
:10122000083F491EF7D10AB0BDE8F08F57F804BB5C
:1012300050F804ABC8FB0B5CC1FB0B46CAFB0B238D
:1012400088465146B9F10109F0D123E755F8043B2E
:1012500056F804CB521EC3FB0C01F7D188E75EF8A9
:10126000041B40F8041B5EF8041B40F8041B5EF8E6
:10127000041B40F8041B5EF8041B40F8041B5B1EB3
:10128000EDD1A9E75EF8042B40F8042B491EF9D1F3
:101290000AB0BDE8F08F0000ABAAAAAA2DE9F05F62
:1012A00093460E4604464FF0000A8D0817D000BF43
:1012B00054F8041B504654F8049B54F8048B54F81B
:1012C000047B01F01FF8494601F01CF8414601F08B
:1012D00019F8394601F016F882466D1EE8D116F06D
:1012E00003051BD0B5F1004F23D2002D16DD241FBE
:1012F00015F0010F05D054F8041F504601F002F814
:1013000082466D080AD05046616800F0FBFF54F831
:10131000081F00F0F7FF82466D1EF4D1304601F041
:1013200033F90146504601F055F8CBF80000BDE80E
:10133000F09F5046216800F0E5FF241D82466D1E97
:10134000F7D1EBE72DE9F05F164602468A4600200A
:1013500001465FEA9A0C16D052F8043B52F8044B4F
:10136000C01852F8045B41EBE371001941EBE471E2
:1013700052F8047B401941EBE571C01941EBE7716C
:10138000BCF1010CE8D11AF003032DD0B3F1004FEA
:1013900032D25F1E002F20DD151F13F0010F05D183
:1013A00055F804CF1CEB000041EBEC714FF0000C42
:1013B000D5F8048064467F100CD0083510EB080087
:1013C00041EBE871D5E900981CEB090C44EBE9749A
:1013D0007F1EF2D110EB0C0061415B1E04D452F869
:1013E0002320101841EBE27152464FEAEA7300F0F5
:1013F000BFF93060BDE8F09F52F804CB1CEB000051
:1014000041EBEC715B1EF7D1EEE7000030B49308BE
:1014100012D0B3F1004F2CD2002BC4BF8C461C4617
:101420000ADD00BFECE80200641E4CF8080B4CF823
:10143000040CF7D101EB031112F0030204BF30BC1E
:101440007047B2F1004F1FD2002ADCBF30BC70479A
:10145000091F12F0010F18BF41F8040F520804BF12
:1014600030BC7047486041F8080F521EFAD130BCBA
:10147000704741F8040B5B1E41F8040B41F8040B64
:1014800041F8040BF5D1D7E741F8040B521EFBD10C
:1014900030BC70472DE9F04190460D460446960851
:1014A0006FF000475ED000BF54F8040B1F2101F01D
:1014B00036FAB0F5000FACBF4FF07C514FF03F4112
:1014C00000F020FF01F0B6F9B1EBE07F18BF87EA2A
:1014D000E17045F8040B54F8040B1F2101F01FFACA
:1014E000B0F5000FACBF4FF07C514FF03F4100F022
:1014F00009FF01F09FF9B1EBE07F18BF87EAE170C7
:1015000045F8040B54F8040B1F2101F008FAB0F55C
:10151000000FACBF4FF07C514FF03F4100F0F2FEA6
:1015200001F088F9B1EBE07F18BF87EAE17045F878
:10153000040B54F8040B1F2101F0F1F9B0F5000F72
:10154000ACBF4FF07C514FF03F4100F0DBFE01F0AB
:1015500071F9B1EBE07F18BF87EAE17045F8040B41
:10156000761EA1D118F0030608BFBDE8F081B6F1E0
:10157000004F1ED2002ED8BFBDE8F0811F21206889
:1015800001F0CDF9241DB0F5000FACBF4FF07C5138
:101590004FF03F4100F0B6FE01F04CF9B1EBE07FB7
:1015A00018BF87EAE17045F8040B761EE6D1BDE866
:1015B000F08154F8040B1F2101F0B1F9B0F5000FD0
:1015C000ACBF4FF07C514FF03F4100F09BFE01F06B
:1015D00031F9B1EBE07F18BF87EAE17045F8040B01
:1015E000761EE6D1BDE8F0812DE9F05F90460D460C
:1015F0000446970836D03846B7F1004F7ED2002F08
:1016000030DDA1460E468246D9F8000000F0A4FF66
:101610006FF01E0101F083F93060D9F8040000F08A
:101620009BFF6FF01E0101F07AF97060D9F8080095
:1016300000F092FF6FF01E0101F071F9B060D9F86F
:101640000C0000F089FF6FF01E0101F068F9F060F6
:10165000103609F11009BAF1010AD5D104EB0714CB
:1016600005EB071518F0030608BFBDE8F09FB6F1BB
:10167000004F6FD2A6F10109B9F1000F2DDD271F30
:10168000A5F1040816F0010F09D157F8040F00F076
:1016900063FF6FF01E0101F042F948F8040FD7F81C
:1016A00004A05FEA690918D057F808BF504600F057
:1016B00053FF6FF01E0101F032F9C8F804005846DC
:1016C000D7F804A000F048FF6FF01E0101F027F9E1
:1016D00048F8080FB9F10109E6D1761E48BFBDE808
:1016E000F09F54F8260000F037FF6FF01E0101F064
:1016F00016F945F82600BDE8F09FFFE7206800F0E6
:101700002BFF6FF01E0101F00AF945F8040B54F8A5
:10171000040F00F021FF6FF01E0101F000F945F801
:10172000040B54F8040F00F017FF6FF01E0101F0D6
:10173000F6F845F8040B54F8040F00F00DFF6FF0B5
:101740001E0101F0ECF8241D45F8040B7F1ED5D1D5
:1017500088E7FFE7206800F0FFFE6FF01E0101F050
:10176000DEF8241D45F8040B761EF3D1BDE8F09F8A
:1017700010B54C1084EA530404D54042C1F1000175
:1017800038BF491E1B4204D55242C3F1000338BF83
:101790005B1E00F03BF814F0804F04D04042C1F1D2
:1017A000000138BF491E14F0004F04D05242C3F16B
:1017B000000338BF5B1E10BD4FF0000200B513469A
:1017C00094469646203922BFA0E80C50A0E80C5061
:1017D000B1F12001BFF4F7AF090728BFA0E80C5012
:1017E00048BF0CC05DF804EB890028BF40F8042B0B
:1017F00008BF704748BF20F8022B11F0804F18BF78
:1018000000F8012B704770477047704753EA020C8D
:1018100000F069802DE9F04B4FF00006002B1FBF50
:10182000B3FA83F503FA05F424FA05F65E4012BF15
:101830001643B2FA82F502FA05F4C5F120051EBF7F
:1018400022FA05FC44EA0C04203556EA044C4FEA1F
:10185000144418BF641C4FF000084FF00009904278
:1018600071EB030C39D3002919BFB1FA81F701FAE2
:1018700007F6B0FA80F700FA07F6C7F120071EBF97
:1018800020FA07FC46EA0C062037B6FBF4FCA7EB6F
:101890000507103F07F01F0BCBF120060CFA0BFBDE
:1018A0002CFA06F644BFB3460026202FA4BF5E469E
:1018B0004FF0000B5BEA060C08BF4FF0010B19EB71
:1018C0000B09ABFB027C48EB0608C01B06FB02CCF5
:1018D0000BFB03CC71EB0C01C1E70B460246414602
:1018E0004846BDE8F08B13B54FF000004FF0000103
:1018F000AFF30080BDE81C407047754600F02CF83F
:10190000AE4605006946534620F00700854618B0EC
:1019100020B5FEF7D9FDBDE820404FF000064FF09E
:1019200000074FF000084FF0000B21F00701AC4614
:10193000ACE8C009ACE8C009ACE8C009ACE8C00933
:101940008D46704710B50446AFF300802046BDE8D1
:101950001040FEF7A4BD0000004870476C16002040
:1019600001491820ABBEFEE72600020070470000C8
:101970000A48C06B40F000600849C8631420084959
:1019800088601220C860002008620E204862002093
:101990008861C861042088627047000000800440AC
:1019A00000B0034001460848425C02F01F00074BAC
:1019B000186000BF0548006800F080000028F9D0DA
:1019C0000248006980B270479A29000000B00340C5
:1019D00010B56C2000F0A0FB452000F09DFB6F20AF
:1019E00000F09AFB442000F097FB10BD10B52020BA
:1019F00000F092FB10BD0146A1F14100C0B270475A
:101A000010B5692000F088FB442000F085FB10BD74
:101A10001548C06B40F080701349C8631348406894
:101A200040F48060114948600846806840F4806056
:101A300088600815C8600E48406D40F006000C49EB
:101A400048652820C860282109484161C1614FF4D8
:101A5000A97101618161016242F6F2300449886036
:101A60000E200860704700000080044000B0044071
:101A7000008003401148C06B40F000700F49C863FC
:101A80004FF440700E49086348630E48406D40F0C3
:101A900004000C4948652820C86028210948416194
:101AA00040F2465101614FF4A971816142F6F23072
:101AB000044988600E2008607047000000800440E0
:101AC00000900440009003400C48806B40F400609C
:101AD0000A49886388150A4948610A48006820F065
:101AE000200008498039C1F880000846D0F89400E9
:101AF00040F02000C1F894007047000000800440CE
:101B000000B0044080F00F400448006840F020001E
:101B100002498839C1F888007047000088F00F40FA
:101B20000448006840F0200002498C39C1F88C005C
:101B3000704700008CF00F4000F01F02012191401F
:101B40004209920002F1E022C2F800117047000041
:101B500010B50F48806900F08070C0B10C488069F2
:101B600040F080700A4988610AA000F0BDF9FFF7D3
:101B700047FF00200D49086004E00C480068401C45
:101B80000A4908600948006809498842F5D310BD30
:101B900000B004405374617274207265636F676EA5
:101BA0006974696F6E210D0A0000000000000020BA
:101BB00080FC0A0010B50F48806B40F400600D49AE
:101BC00088630D4880690D4908430B4988610846C0
:101BD000806920F00100886109480068084994394B
:101BE000C1F8940040200449A03108605920FFF753
:101BF000A3FF10BD0080044000B0044002010A00B1
:101C000094F00F4070B5FFF78BFF0020FFF7CAFE7E
:101C1000314908600120FFF7C5FE2F4948600220C6
:101C2000FFF7C0FE2C49886009682B4A9268881A21
:101C300000F092FC0646294900F0BAFC0546284906
:101C400000F0C8FB2749086023494968224A926886
:101C5000881A00F081FC0646204900F0A9FC0546E0
:101C60001F4900F0B7FB2049086000BFEFF3108068
:101C7000044672B663201D49086018E01B480068DE
:101C8000401E1B4951F82000184A126841F82200F2
:101C900016480068401E174951F82000134A126880
:101CA00041F8220011480068401E104908600F48A2
:101CB00000680028E2D10B4800680D4908600A4816
:101CC00000680C49086000BF84F3108800BF012041
:101CD0000949087070BD00001801002033335340DB
:101CE00000F07F45100000201400002000000020BC
:101CF00024010020B4020020040000204CF22050F7
:101D00005349C8814DF62810C8814FF4E970088006
:101D10005048514948640846806B40F4007088631D
:101D20004E48807800F0080028B14C48807840F098
:101D300008004A4988704FF089704749486408464E
:101D4000406840F4803048604548006840F44020D6
:101D5000434908604348806C4349084041498864CE
:101D60000846C06C404908403E49C86424203F49A9
:101D7000487080203E4908703C48007B00F0FE001F
:101D80003A490873A22008700846C07800F01F0086
:101D9000C870072008710C20487100BF3348807953
:101DA00000F002000028F9D000BF3048807900F030
:101DB00010000028F9D100BF2C48807900F00C00F9
:101DC0000828F9D14C202949487100BF274880795B
:101DD00000F00C000828F9D100BF2448807900F0F9
:101DE00040000028F9D022202049087000BF1F4879
:101DF000807900F00C000C28F9D11A48006920F015
:101E0000807040F4E060174908611A48407900F09A
:101E1000E000184948710846007900F0F8000871A0
:101E20000E48007800F0DC0040F050000B490870CC
:101E30000846407800F0DC0040F04000487008465A
:101E4000807800F0E600887000200B490870704729
:101E500000200540000033010080044000D007400E
:101E60000070044000900440FFF8FFFE0040064070
:101E70000050064000F0074000E0074010B513484E
:101E8000806B40F48060114988630846406B40F4E1
:101E90008060486340F213300D4908644FF451707C
:101EA00048640C48C07800F0F3000A49C87000206C
:101EB00008702720487002208872042088702C2027
:101EC000C8702D20FFF738FE10BD000000800440D0
:101ED00000A0044000A00640024909790149C879E0
:101EE000C871704700A0064000B5024603E01078B4
:101EF00000F006F8521C10780028F8D100BD000050
:101F000000BF0449097901F080010029F9D0014995
:101F1000C871704700A0064010B51348806B40F4AC
:101F20008050114988630846406B40F480504863F4
:101F300040F213300D4988604FF45170C8600C486E
:101F4000C07800F0F3000A49C87000200870EA2049
:101F500048700C208872042088702C20C8703120B2
:101F6000FFF7EAFD10BD00000080044000C00440FF
:101F700000C0064010B5424800794148C479414844
:101F8000007810B1012879D137E0732C0AD004DC35
:101F9000652C1BD06F2C27D11FE0742C08D0762C19
:101FA00022D10CE0FFF722FD01203649087022E023
:101FB00000203449087034A0FFF796FF1BE0002092
:101FC0003049087034A0FFF78FFF14E000202D493E
:101FD000087035A0FFF788FF00BF0020294908706E
:101FE00034A0FFF781FF00BF0020264908702AA017
:101FF000FFF77AFF00BF00BF40E02046FFF7FBFC81
:102000002E490870084600780B2833D2DFE800F02C
:10201000060A0E12161A1E22262A2E0028A0FFF7E4
:1020200063FF27E028A0FFF75FFF23E028A0FFF76A
:102030005BFF1FE028A0FFF757FF1BE028A0FFF77A
:1020400053FF17E028A0FFF74FFF13E028A0FFF78A
:102050004BFF0FE028A0FFF747FF0BE028A0FFF79A
:1020600043FF07E028A0FFF73FFF03E028A0FFF7AA
:102070003BFF00BF00BF00200249087000BF10BD39
:1020800000C006400C00002074696D656F75742EE9
:102090002E2E0D0A00000000696E76616C69642EB8
:1020A0002E2E0D0A000000006572726F722E2E2E09
:1020B0000D0A00004F4B2E2E2E0D0A000D000020A1
:1020C0005A65726F0D0A00004F6E650D0A00000020
:1020D00054776F0D0A00000054687265650D0A00A0
:1020E000466F75720D0A0000466976650D0A00009C
:1020F0005369780D0A000000536576656E0D0A007D
:1021000045696768740D0A004E696E650D0A000026
:1021100054656E0D0A00000000BF0449097901F002
:1021200080010029F9D00149C871704700C00640FC
:1021300008B5642259494FF07C50FFF767F96422D3
:1021400057494FF07C50FFF761F9642255495348D5
:10215000FFF7A0F91D2254495448FFF79BF9642268
:1021600053494FF07E50FFF751F96420514B4F4ACD
:102170001D2100905048FEF7E8FE64204F4B4A4A6C
:102180001D2100904E48FEF7EEFE4E4800680A22E0
:10219000B0FBF2F1481EB0F1807F00D31BE0481E77
:1021A0004FF0E022506150170F22002807DA130782
:1021B0001D0E454B00F00F04241F1D5503E01307AF
:1021C0001C0E424B1C5400BF00204FF0E0229061D7
:1021D0000720106100BFFFF7EDFCFFF775FCFFF76C
:1021E00017FCFFF747FCFFF7C3FBFFF747FEFFF7BE
:1021F00093FEFFF789FCFFF7EBFB002034490870E2
:102200004BE033480078002847D064223149234806
:10221000FEF76AF96423304A2E492748FEF724FA6C
:1022200064222E491E48FEF75FF964232C4A29498F
:102230002148FEF719FA64222A491A48FEF7A0F944
:102240006423294A27491E48FEF79CFE6422274939
:102250002548FFF7C9F9264A64211F48FFF71EF8F1
:10226000244A64211E48FFF719F8234A64211F48B5
:10227000FFF714F8214A64211B48FFF763F81F4851
:10228000006800F069F904464FF09E4100F0A2F8A2
:102290001B49086000200E490870B2E724010020A5
:1022A000B4020020140C0020A00000202C0000200C
:1022B000840A0020541200205416002054140020D8
:1022C000601600201401002018ED00E000E400E09A
:1022D000040000204404002064070020D4050020EE
:1022E000F4080020A40D0020340F0020C4100020AA
:1022F0001C000020200000201800002028000020E2
:102300002400002090EA010F48BF81F0004100F155
:102310002282421A3CBF801A89184FEAD0524FF0ED
:102320007F4C1CEA410FA2EBD15318BF9CEA026F0D
:1023300000F03B804FF0004C4CEA00204CEA0121B9
:1023400021FA03FC10EB0C0C1ED202F1FF325FEA03
:102350001C2040EBC25038BF70471CF07F0F4FEA83
:10236000400C18BFBCF17F4F38BF7047C3F120034A
:10237000994008BF20F00100BCF17F4F38BF704783
:10238000A0F1C04000F0DBB94FEA3C00000A40EB8E
:10239000C25028BF1CF0FF0F4FEA400CE6D018BF18
:1023A000BCF17F4F38BF7047EAE79CEA026F05D067
:1023B00010EA5C0F08BF00F00040704710B500F055
:1023C00078F900BF64FBBE3E014800F076BA00BF5A
:1023D0000000C07F4FF47F0C1CEAD0121EBF1CEA25
:1023E000D11392EA0C0F93EA0C0F00F0858090EA6B
:1023F000010F48BF42F4807240F4000C41F4000029
:102400002CF07F4120F07F4000B58142A2EB030217
:102410000FF2081CACEB504EC0F100009EF800E03B
:102420004FEA4E0E00FB0EFC38BF49004FEA2C1C51
:1024300002F5FA020CFB0EF34FEACE1E4FEA112C06
:102440004FEAC1210EEB635E42EB22420EFB0CFC15
:102450004FEA1C5300FB03114FEA112C4FEA0131E4
:102460000EFB0CFC4FEADC4C00FB0C11C14228BFF8
:1024700009184CEB03335DF804EB10EB410143EB1F
:10248000C250B2F57C0F38BF704729D512F0F00F5B
:102490001CBF00F1C04000F0004070470081828303
:1024A0008485868788898B8C8D8E8F919293959663
:1024B00097999A9C9D9FA0A2A3A5A7A8AAACAEB0ED
:1024C000B2B3B5B7B9BCBEC0C2C5C7C9CCCED1D4F2
:1024D000D7D9DCDFE2E6E9ECF0F3F7FAFE00000022
:1024E0004FEA400C0CF1807CBCF17E4F28BF704756
:1024F000B0F1C04000F023B990EA010F0CEAD1130B
:1025000048BF42F48072624538BF634507D213F476
:102510007F0F16D080EA010000F00040704710B530
:1025200000F0C7F8097EFC3E00F005B880EA010023
:1025300000F00040704780EA010000F0004000F029
:10254000FEB812F47F0F04BF0248704780EA010012
:1025500000F0F5B80000C07F10F0004148BF4042D5
:10256000B0FA80F310FA03F2C3F19D030BD051EAE5
:10257000C35101EB1220530638BF704700F1010030
:1025800008BF20F001007047B0FA80F310FA03F2A0
:10259000C3F19D030AD0D90501EB1220530638BFC1
:1025A000704700F1010008BF20F0010070470000F3
:1025B0004FF47F0C1CEAD0121EBF1CEAD11392EA22
:1025C0000C0F93EA0C0F00F0478090EA010F48BF10
:1025D00042F480724FF0004C4CEA00204CEA01219A
:1025E00002EB0302A0FB0113A2F50002002918BFB1
:1025F00043F001035B0028BF4FEA330342EB224262
:102600005FEA132C4CEBC2502EBFBCEB436FB2F50C
:102610007C0F70474FEA036CBCF1004F08BF20F0FD
:102620000100B2F57C0F38BF70470BD582F0FF0276
:1026300012F5803FC8BF704700F1C040D8BF00F01E
:102640000040704700F5000C5FEA4C0C48BF704733
:10265000B0F1C04000F073B890EA010F0CEAD1135A
:1026600048BF42F48072624538BF634504D280EAB5
:10267000010000F00040704710B500F01AF800BFEC
:102680008900013E00F007B800F009B85FEA410C8C
:102690005FEA1C6C08D080EA010000F050B85FEAE5
:1026A000400C5FEA1C6CF6D14FF00040A0F58000B2
:1026B00070470EF1020E2EF0030E5EF8044B24421A
:1026C00004D44FEA4102B2F17F4F11D84FEA4003E0
:1026D000B3F17F4F0CD80ED14FEAD07CB2F17F4FCF
:1026E0000CEB4C0C0CF1020C08BF4CEBD17C04E061
:1026F0004FF0080C01E04FEAD17C0CEB4C0324FABC
:1027000003F404F00704B4F1040C06D20EEB840CBD
:10271000BDE810404CF0010C6047DFE80CF0070802
:1027200002024FF00040A0F5800010BD08464200B4
:1027300018BFD2F1807288BF00F0004010BDFF21A9
:1027400041EAD050C005704790EA010F48BF81F0C0
:1027500000413FF5DEAD421A04D882F00042A0EB02
:10276000020011444FEAD0524FF07F4C1CEA410F57
:10277000A2EBD15318BF9CEA026F4AD04FF0004C35
:102780004CEA00204CEA012121FA03FCB0EB0C0CCE
:102790000FD412F0FE0F36D05FEA4C001DD50012A8
:1027A00040EBC25038BF70471CF03F0F18BF704756
:1027B0000BE0A2F101025FEA1C2040EBC25038BFDF
:1027C00070471CF07F0F18BF7047C3F1200399407A
:1027D00014BF401E20F00100704780084FEA12230A
:1027E00008BF7047B0FA80FCA2EB0C02CCF1280CB9
:1027F00060FA0CF093EA122F04BF00EBC25070474E
:102800004FEAC3707047130A5FEADC1008BF7047D5
:10281000F6E79CEA026F04D010EA5C0F08BF0020C4
:10282000704710B5FFF745FF40DFF63E81F00040EE
:1028300070470000C2154FEA002318BF43F0004361
:1028400000F11080D2F1BE0240F2288023FA02F19A
:10285000B2F1200C2EBF23FA0CF0C2F1200C03FAC7
:102860000CF07047B0F15F4F00F2188012F0FF02D9
:1028700008BF23F00043C2F1BE0223FA02F1B2F115
:10288000200C2EBF23FA0CF0C2F1200C03FA0CF03E
:102890004042C1F1000138BF491E704710B5FFF733
:1028A00008FF00BF9224498000204FF000017047CC
:1028B0006FEAE07080F0004170470CF00F03092BC5
:1028C00008BF082000F051800A2B0BD0082B18BF3E
:1028D000704708BF1CF0400F0AD04FF000004FF0C7
:1028E000000170471CF0400F18BF4FF000407047C8
:1028F0001CF0100F08D020F0704300F07F4242EA35
:10290000D3014FEA4370704700F0604021F07F42EE
:1029100042EA000201F07F4040EA727070474FF0D7
:10292000FF0212EAD0521CBF92F0FF038B42C2BFDB
:10293000D14200EBC1507047002A0AD0002B0BD0C7
:10294000002900F00040A4BF40F0FE4040F4000029
:10295000704700F00040704743024FF00B0C18BF67
:102960004CF0806C7FF430AD70471CF4801F11D0A8
:102970001CF4E02F03D06FEACC31490070474FF0D0
:102980004050EFF3008222F0704242EA000282F3EC
:10299000008870474FF000007047050E08090D0CC5
:1029A00006070F04001303931A9217C585848687C0
:1029B000C4000000D429000000000020180100001D
:1029C0004C040000EC2A000018010020B819000097
:1029D000680400000000000000000000000000008B
:1029E0000061000000000000000000000000000086
:1029F00000000000000000000000000000000000D7
:102A0000D4D8A73BECE8C03B38DB043C9B933F3C6D
:102A1000E7F0863CF5FEB53C87A2EA3CA21D113DDD
:102A200064FE2C3D118A473DD9665F3DD05C733D05
:102A30003033813D10DF853DA274873D10DF853D39
:102A40003033813DD05C733DD9665F3D118A473D8F
:102A500064FE2C3DA21D113D87A2EA3CF5FEB53C6B
:102A6000E7F0863C9B933F3C38DB043CECE8C03B02
:102A7000D4D8A73BD3D8A700ECE8C00070B60901B2
:102A800036277F019CC31B02D2FBD7021D8AAA03F3
:102A90000CED880421F3670585503C06C836FB061B
:102AA00081E69A0703331308FEF05D08194A770898
:102AB000FEF05D080333130881E69A07C836FB066B
:102AC00085503C0621F367050CED88041D8AAA0396
:102AD000D2FBD7029CC31B0236277F0170B60901C7
:0C2AE000ECE8C000D3D8A70000A24A0414
:0400000500000411E2
:00000001FF
