:020000040000FA
:100000006004001491040000990400009B040000A7
:100010009D0400009F040000A104000000000000F7
:10002000000000000000000000000000A304000029
:10003000A504000000000000A7040000A9040000BF
:10004000AB040000AB040000AB040000AB040000F4
:10005000AB040000AB040000AB040000AB040000E4
:10006000AB040000AB040000AB040000AB040000D4
:10007000AB040000AB040000AB040000AB040000C4
:10008000AB040000AB040000AB040000AB040000B4
:10009000AB040000AB040000AB040000AB040000A4
:1000A000AB040000AB040000AB040000AB04000094
:1000B000AB040000AB040000AB040000AB04000084
:1000C000AB040000AB040000AB040000AB04000074
:1000D000AB040000AB040000AB040000AB04000064
:1000E000AB040000AB040000AB040000AB04000054
:1000F000AB040000E9070000AB040000AB04000003
:10010000AB040000AB040000AB040000AB04000033
:10011000AB040000AB040000AB040000AB04000023
:10012000AB040000AB040000AB040000AB04000013
:10013000AB040000AB040000AB040000AB04000003
:1001400049050000AB040000AB040000AB04000054
:10015000AB040000AB040000AB040000AB040000E3
:10016000AB040000AB040000AB040000AB040000D3
:10017000AB040000AB040000AB040000AB040000C3
:10018000AB040000AB040000AB040000AB040000B3
:10040000FFFFFFFFFFFFFFFFFFFFFFFFFEFFFFFFFD
:1004100000F002F800F02CF80AA090E8000C8244EA
:100420008344AAF10107DA4501D100F021F8AFF2C7
:10043000090EBAE80F0013F0010F18BFFB1A43F0C2
:1004400001031847DC030000EC0300000023002434
:1004500000250026103A28BF78C1FBD8520728BFD4
:1004600030C148BF0B6070471FB51FBD10B510BD30
:1004700000F02FF81146FFF7F7FF00F0B7F900F092
:100480004DF803B4FFF7F2FF03BC00F055F800008D
:100490000948804709480047FEE7FEE7FEE7FEE718
:1004A000FEE7FEE7FEE7FEE7FEE7FEE70448054954
:1004B000034A054B704700002106000011040000AC
:1004C000600000146004001460000014704770475E
:1004D0007047754600F02CF8AE4605006946534655
:1004E00020F00700854618B020B5FFF7DFFFBDE814
:1004F00020404FF000064FF000074FF000084FF08B
:10050000000B21F00701AC46ACE8C009ACE8C0091B
:10051000ACE8C009ACE8C0098D46704710B5044688
:10052000AFF300802046BDE81040FFF7AABF0000EF
:10053000004870470000001401491820ABBEFEE7D8
:10054000260002007047000000B50448006820F053
:1005500080000249086000F04BF800BD00800B40AD
:100560000B48006B40F08070094908630948406DF2
:1005700040F00400074948651020C8600021054884
:1005800001614DF6BA30034988604E20086070471B
:100590000080044000800B400C48806B40F40060F9
:1005A0000A49886388150A4948610A48006820F0AA
:1005B000200008498039C1F880000846D0F894002E
:1005C00040F02000C1F89400704700000080044013
:1005D00000B0044080F00F400448006840F0200064
:1005E00002498439C1F884007047000084F00F404C
:1005F0000448006840F0200002498C39C1F88C00A2
:10060000704700008CF00F4000F01F020121914064
:100610004209920002F1E022C2F800117047000086
:100620004CF220505349C8814DF62810C8814FF430
:10063000E97008805048514948640846806B40F48E
:10064000007088634E48807800F0080028B14C485C
:10065000807840F008004A4988704FF08970474917
:1006600048640846406840F4803048604548006867
:1006700040F44020434908604348806C43490840A7
:10068000414988640846C06C404908403E49C864F6
:1006900024203F49487080203E4908703C48007B38
:1006A00000F0FE003A490873A22008700846C0789E
:1006B00000F01F00C870072008710C20487100BFAF
:1006C0003348807900F002000028F9D000BF30489C
:1006D000807900F010000028F9D100BF2C48807903
:1006E00000F00C000828F9D14C202949487100BFBE
:1006F0002748807900F00C000828F9D100BF244871
:10070000807900F040000028F9D0222020490870AC
:1007100000BF1F48807900F00C000C28F9D11A485E
:10072000006920F0807040F4E060174908611A48C1
:10073000407900F0E000184948710846007900F05F
:10074000F80008710E48007800F0DC0040F050001E
:100750000B4908700846407800F0DC0040F040008B
:1007600048700846807800F0E600887000200B4949
:1007700008707047002005400000330100800440ED
:1007800000D007400070044000900440FFF8FFFED6
:10079000004006400050064000F0074000E00740DF
:1007A0000F48006920F003000D4908610846406BBE
:1007B00040F4806048630B48C07800F0F3000949BA
:1007C000C87000200870272048700220887200201E
:1007D0008870C0204871002088710C20C870704754
:1007E0000080044000A006407047000040F2033043
:1007F0000A4908644FF451704864FFF7CDFEFFF7D3
:10080000AFFEFFF7CDFF4020FFF7FEFE2D20FFF7E4
:10081000FBFEFFF7E1FE00BFFEE7000000A0044082
:100820003008000000000014600400004C040000C8
:0400000500000411E2
:00000001FF
