:020000040000FA
:1000000070040014AD040000B5040000B704000043
:10001000B9040000BB040000BD04000000000000A3
:10002000000000000000000000000000BF0400000D
:10003000C104000000000000C3040000C50400006B
:10004000C7040000C7040000C7040000C704000084
:10005000C7040000C7040000C7040000C704000074
:10006000C7040000C7040000C7040000C704000064
:10007000C7040000C7040000C7040000C704000054
:10008000C7040000C7040000C7040000C704000044
:10009000C7040000C7040000C7040000C704000034
:1000A000C7040000C7040000C7040000C704000024
:1000B000C7040000C7040000C7040000C704000014
:1000C000C7040000C7040000C7040000C704000004
:1000D000C7040000C7040000C7040000C7040000F4
:1000E000C7040000C7040000C7040000C7040000E4
:1000F000C7040000C7040000C7040000C7040000D4
:10010000C7040000C7040000C7040000C7040000C3
:10011000C7040000C7040000C7040000C7040000B3
:10012000C7040000C7040000C7040000C7040000A3
:10013000C7040000C7040000C7040000C704000093
:100140007D060000C7040000C7040000C7040000CB
:10015000C7040000C7040000C7040000C704000073
:10016000C7040000C7040000C7040000C704000063
:10017000C7040000C7040000C7040000C704000053
:10018000C7040000C7040000C7040000C704000043
:10019000C7040000C7040000C7040000C704000033
:1001A000C70400005D070000C7040000C70400008A
:1001B000C7040000C7040000C7040000C704000013
:1001C000C7040000C7040000C7040000C704000003
:1001D000C7040000C7040000C7040000C7040000F3
:1001E000C7040000C7040000C7040000C7040000E3
:10040000FFFFFFFFFFFFFFFFFFFFFFFFFEFFFFFFFD
:1004100000F002F800F03AF80AA090E8000C8244DC
:100420008344AAF10107DA4501D100F02FF8AFF2B9
:10043000090EBAE80F0013F0010F18BFFB1A43F0C2
:10044000010318475C0500007C050000103A24BF3A
:1004500078C878C1FAD8520724BF30C830C144BF29
:1004600004680C607047000000230024002500266B
:10047000103A28BF78C1FBD8520728BF30C148BF07
:100480000B6070471FB51FBD10B510BD00F02FF8F1
:100490001146FFF7F7FF00F05FFA00F04DF803B4E4
:1004A000FFF7F2FF03BC00F055F800000948804751
:1004B00009480047FEE7FEE7FEE7FEE7FEE7FEE746
:1004C000FEE7FEE7FEE7FEE704480549034A054B61
:1004D00070470000D90700001104000070000014EC
:1004E0007004001470000014704770477047754620
:1004F00000F02CF8AE4605006946534620F0070090
:10050000854618B020B5FFF7DFFFBDE820404FF06B
:1005100000064FF000074FF000084FF0000B21F0ED
:100520000701AC46ACE8C009ACE8C009ACE8C009BA
:10053000ACE8C0098D46704710B50446AFF30080A3
:100540002046BDE81040FFF7AABF000000487047F2
:100550000C00001401491820ABBEFEE72600020083
:10056000704700000A48C06B40F000600849C8634B
:100570001420084988601220C860002008620E20FC
:10058000486200208861C8610420886270470000CA
:100590000080044000B0034001460848425C02F07D
:1005A0001F00074B186000BF0548006800F080007E
:1005B0000028F9D00248006980B27047880900001D
:1005C00000B003401548C06B40F080701349C86309
:1005D0001348406840F480601149486008468068CC
:1005E00040F4806088600815C8600E48406D40F097
:1005F00006000C4948652820C86028210948416147
:10060000C1614FF4A97101618161016242F6F2306A
:10061000044988600E200860704700000080044094
:1006200000B00440008003401148C06B40F00070EF
:100630000F49C8634FF440700E49086348630E4881
:10064000406D40F004000C4948652820C86028210E
:100650000948416140F2465101614FF4A97181613D
:1006600042F6F230044988600E20086070470000AE
:1006700000800440009004400090034000B504480E
:10068000006820F080000249086000F04FF800BDCB
:1006900000800B4010B50D48006B40F080700B4996
:1006A00008630B48406D40F004000949486510207C
:1006B000C8600021064801614DF6BA3004498860DF
:1006C0004E200860402000F03DF810BD008004403E
:1006D00000800B400C48806B40F400600A4988633E
:1006E00088150A4948610A48006820F02000084936
:1006F0008039C1F880000846D0F8940040F020000E
:10070000C1F89400704700000080044000B004402D
:1007100080F00F400448006840F02000024988390A
:10072000C1F888007047000088F00F400448006856
:1007300040F0200002498C39C1F88C00704700005D
:100740008CF00F4000F01F020121914042099200FD
:1007500002F1E022C2F800117047000008488069E9
:1007600000F0807050B10648806940F08070044904
:10077000886104480068401C024908607047000016
:1007800000B004400400001410B50F48806B40F422
:1007900000600D4988630D4880690D4908430B4985
:1007A00088610846806920F0010088610948006876
:1007B00008499439C1F8940040200449A0310860E8
:1007C0005920FFF7BFFF10BD0080044000B0044077
:1007D00002010A0094F00F404CF220505349C881A6
:1007E0004DF62810C8814FF4E970088050485149EF
:1007F00048640846806B40F4007088634E488078F7
:1008000000F0080028B14C48807840F008004A49C0
:1008100088704FF08970474948640846406840F442
:10082000803048604548006840F4402043490860F3
:100830004348806C43490840414988640846C06C7D
:10084000404908403E49C86424203F494870802000
:100850003E4908703C48007B00F0FE003A490873AE
:10086000A22008700846C07800F01F00C87007205A
:1008700008710C20487100BF3348807900F00200F5
:100880000028F9D000BF3048807900F0100000281F
:10089000F9D100BF2C48807900F00C000828F9D16C
:1008A0004C202949487100BF2748807900F00C008E
:1008B0000828F9D100BF2448807900F040000028C2
:1008C000F9D022202049087000BF1F48807900F02D
:1008D0000C000C28F9D11A48006920F0807040F40F
:1008E000E060174908611A48407900F0E0001849B3
:1008F00048710846007900F0F80008710E48007849
:1009000000F0DC0040F050000B49087008464078C9
:1009100000F0DC0040F0400048700846807800F0AD
:10092000E600887000200B490870704700200540E1
:10093000000033010080044000D0074000700440F4
:1009400000900440FFF8FFFE0040064000500640C3
:1009500000F0074000E00740FFF766FEFFF714FFD6
:10096000FFF7B8FEFFF796FEFFF72CFEFFF7FAFD44
:10097000FFF7D0FE04E00020FFF70EFE01490860FB
:10098000F9E7000008000014050E08090D0C060721
:100990000F04001303931A9217C585848687C40039
:1009A000C0090000000000140C0000004C0400000E
:1009B000CC0900000C00001464040000680400006E
:0C09C0000000000000000000000000002B
:0400000500000411E2
:00000001FF
