:020000040000FA
:1000000000050020AD040000B5040000B7040000A6
:10001000B9040000BB040000BD04000000000000A3
:10002000000000000000000000000000BF0400000D
:10003000C104000000000000C3040000850A0000A5
:10004000C7040000C7040000C7040000C704000084
:10005000C7040000C7040000C7040000C704000074
:10006000C7040000C7040000C7040000C704000064
:10007000C7040000C7040000C7040000C704000054
:10008000C7040000C7040000C7040000C704000044
:10009000C7040000C7040000C7040000C704000034
:1000A000C7040000C7040000C7040000C704000024
:1000B000C7040000C7040000C7040000C704000014
:1000C000C7040000C7040000C7040000C704000004
:1000D000C7040000C7040000C7040000C7040000F4
:1000E000C7040000C7040000C7040000C7040000E4
:1000F000C7040000490B0000C7040000C70400004B
:10010000C7040000C7040000C7040000C7040000C3
:10011000C7040000C7040000C7040000C7040000B3
:10012000C7040000C7040000C7040000C7040000A3
:10013000C7040000C7040000C5050000C704000094
:10014000C7040000C7040000C7040000C704000083
:10015000C7040000C7040000C7040000C704000073
:10016000C7040000C7040000C7040000C704000063
:10017000C7040000C7040000C7040000C704000053
:10018000C7040000C7040000C7040000C704000043
:10019000C7040000C7040000C7040000C704000033
:1001A000C704000015090000C7040000C7040000D0
:1001B000C7040000C7040000C7040000C704000013
:1001C000C7040000C7040000C7040000C704000003
:1001D000C7040000C7040000C7040000C7040000F3
:1001E000C7040000C7040000C7040000C7040000E3
:10040000FFFFFFFFFFFFFFFFFFFFFFFFFEFFFFFFFD
:1004100000F002F800F03AF80AA090E8000C8244DC
:100420008344AAF10107DA4501D100F02FF8AFF2B9
:10043000090EBAE80F0013F0010F18BFFB1A43F0C2
:10044000010318475008000070080000103A24BF4C
:1004500078C878C1FAD8520724BF30C830C144BF29
:1004600004680C607047000000230024002500266B
:10047000103A28BF78C1FBD8520728BF30C148BF07
:100480000B6070471FB51FBD10B510BD00F02FF8F1
:100490001146FFF7F7FF00F079FB00F04DF803B4C9
:1004A000FFF7F2FF03BC00F055F800000948804751
:1004B00009480047FEE7FEE7FEE7FEE7FEE7FEE746
:1004C000FEE7FEE7FEE7FEE704480549034A054B61
:1004D00070470000D10A0000110400000001002054
:1004E00000050020000100207047704770477546E6
:1004F00000F02CF8AE4605006946534620F0070090
:10050000854618B020B5FFF7DFFFBDE820404FF06B
:1005100000064FF000074FF000084FF0000B21F0ED
:100520000701AC46ACE8C009ACE8C009ACE8C009BA
:10053000ACE8C0098D46704710B50446AFF30080A3
:100540002046BDE81040FFF7AABF000000487047F2
:10055000A000002001491820ABBEFEE726000200E3
:10056000704700000A48C06B40F000600849C8634B
:100570001420084988601220C860002008620E20FC
:10058000486200208861C8610420886270470000CA
:100590000080044000B0034001460848425C02F07D
:1005A0001F00074B186000BF0548006800F080007E
:1005B0000028F9D00248006980B270477C0C000026
:1005C00000B003407D48006800F08000002856D04D
:1005D0007A48006820F08000784908607848006810
:1005E00040F0100076498439C1F884000846D0F8FC
:1005F000880040F00400C1F888000846D0F8C40024
:1006000040F00800C1F8C4000846D0F8880040F067
:100610000800C1F888000846D0F8C40040F0040083
:10062000C1F8C4000846D0F8C80040F01000C1F876
:10063000C8000846406840F4005048600846D0F8BA
:10064000C80040F08000C1F8C8000846D0F8C400D7
:1006500040F00100C1F8C4000846806840F48050B2
:1006600088600846D0F8840040F00200C1F8840099
:100670000846D0F8C80040F04000C1F8C8004F4814
:10068000C06800F08000A0B14C48C06820F0800035
:100690004A49C8604A48006840F004004849843923
:1006A000C1F884000846D0F8880040F01000C1F876
:1006B00088004248406900F08000A8B13F48406986
:1006C00020F080013D4841613D484430006840F0E1
:1006D00008003B498439C1F8C8000846D0F88400B6
:1006E00040F00800C1F884003448C06900F0800080
:1006F000A8B13248C06920F080013048C16130485B
:100700004430006840F004002D498439C1F8C80025
:100710000846D0F8C40040F01000C1F8C4002748D3
:10072000406A00F08000A0B12448406A20F08001B7
:100730002248416222488438806840F400502049B1
:10074000843988601E484030006840F08000C1F85D
:10075000C4001A48C06A00F0800098B11748C06A07
:1007600020F080011548C16215484430006840F00F
:10077000010013498439C1F8C8000846406840F4B4
:10078000805048600D48406B00F08000A8B10B48D5
:10079000406B20F08001094841630948001D006852
:1007A00040F0020006498439C1F888000846D0F8B4
:1007B000C40040F04000C1F8C4007047008003400E
:1007C00084F00F400C48806B40F400600A49886355
:1007D00088150A4948610A48006820F02000084945
:1007E0008039C1F880000846D0F8940040F020001D
:1007F000C1F89400704700000080044000B004403D
:1008000080F00F400448006840F020000249883919
:10081000C1F888007047000088F00F400448006865
:1008200040F0200002498439C1F88400704700007C
:1008300084F00F403248806B40F400703049886388
:100840000846806B40F4006088630846806B40F483
:10085000805088632B48806840F480702949886004
:100860000846006940F4807008610846C06840F49A
:100870008070C8602448C06840F480702249C86015
:100880000846006940F4807008610846806840F4BA
:10089000807088600846C06940F48070C8611B4859
:1008A000406B40F48070194948630846006B40F47F
:1008B000807008631448006840F480701249086032
:1008C0000846806940F4807088610E48406840F4B2
:1008D00080700C4948600E48406940F440500C4913
:1008E00048610B489430006840F01E00C1F8940045
:1008F0000846D0F8D40040F0DD00C1F8D4007047BD
:100900000080044000B0044000C004400090044057
:1009100000F00F4010B53748806900F08070A0B13A
:1009200035480068092805D233480068401C324920
:10093000086002E00020304908602E48806940F0DD
:1009400080702C498861FFF769FF2A48C06900F070
:10095000807098B12848006828B127480068401E78
:100960002549086002E00920234908602148C06940
:1009700040F080701F49C861FFF744FF1E480068BF
:100980000A282ED2DFE800F005090D1115191D21E6
:10099000252900201949087023E00520174908700F
:1009A0001FE00120154908701BE00520134908705D
:1009B00017E002201149087013E005200F49087064
:1009C0000FE003200D4908700BE005200B4908706B
:1009D00007E004200949087003E005200749087072
:1009E00000BF00BF054909783031C8B200F0B4F843
:1009F00010BD000000B004400C00002014000020D6
:100A000010B51C48806B40F400601A4988631A488E
:100A100080691A490843184988610846806940F08E
:100A2000100088610846806920F00100886108464E
:100A3000C069124908431049C8610846C06940F0BE
:100A40001000C8610846C06920F00100C8610C4868
:100A500000680B499439C1F89400094800680849B6
:100A60000860C0200449A0310860592000F080F8D7
:100A700010BD00000080044000B0044002010900E5
:100A800094F00F4010B50420FFF786FD00B20C492A
:100A90000978322291FBF2F302FB1311094A22F882
:100AA00011000948007820B908480068401E07492D
:100AB000086003480078401C0149087010BD000020
:100AC000160000203A00002017000020100000202F
:100AD0004CF220500449C8814DF62810C8814FF4CB
:100AE000E9700880704700000020054010B51348E9
:100AF000806B40F48060114988630846406B40F485
:100B00008060486340F213300D4908644FF451701F
:100B100048640C48C07800F0F3000A49C87000200F
:100B200008702720487002208872042088702C20CA
:100B3000C8702D2000F01CF810BD0000008004409B
:100B400000A0044000A00640024909790149C87983
:100B5000C871704700A0064000BF0449097901F040
:100B600080010029F9D00149C871704700A00640F2
:100B7000002809DB00F01F02012191404209920088
:100B800002F1E022C2F8001170470000FFF738FFC1
:100B9000FFF718FEFFF74EFEFFF7E4FCFFF7A6FF96
:100BA0002F4800684FF47A72B0FBF2F1481EB0F1A2
:100BB000807F00D31BE0481E4FF0E02250615017A9
:100BC0000F22002804DB13071C0E264B1C5406E0E2
:100BD00013071D0E244B00F00F04241F1D5500BFEA
:100BE00000204FF0E02290610720106100BF00203C
:100BF00004E000211D4A22F81010401C3228F8DBC6
:100C00002DE01B48007810B1012827D115E01948C4
:100C1000006810B90120164908701748006840F0B4
:100C200008001549C439C1F8C4000846D0F8880046
:100C300040F00800C1F8880010E00F48001D00686F
:100C400040F008000C49C439C1F8C8000846D0F883
:100C5000880040F00800C1F8880000BF00BFD0E75E
:100C60001800002000E400E018ED00E03A00002049
:100C70001700002010000020C4F00F40050E0809E6
:100C80000D0C06070F04001303931A9217C58584F1
:100C90008687C400B40C0000000000201C00000087
:100CA0004C040000D00C00001C000020E4040000F4
:100CB00068040000A000A000A000A000A000A00008
:100CC0000000000058020000000000000000400189
:04000005000004AD46
:00000001FF
